S02B00002F686F6D652F6D697436733139346961702F4465736B746F702F7465616368696E672D637565642D8C
S113000000060020E90400001105000011050000AD
S113001000000000000000000000000000000000DC
S113002000000000000000000000000011050000B6
S11300300000000000000000110500001105000090
S11300401105000011050000110500001105000054
S11300501105000011050000110500001105000044
S1130060E507000011050000EF070000110500007E
S11300701105000011050000110500001105000024
S11300801105000011050000110500001105000014
S11300901105000011050000110500001105000004
S11300A011050000110500001105000011050000F4
S11300B011050000110500001105000011050000E4
S1130400FFFFFFFFFFFFFFFFFFFFFFFFFE3DFFFFBB
S113041010B5064C2378002B07D1054B002B02D0D6
S1130420044800E000BF0123237010BDC8FEFF1F75
S1130430000000004C38000008B5084B002B03D026
S11304400748084900E000BF07480368002B03D0B1
S1130450064B002B00D0984708BDC04600000000A2
S11304604C380000CCFEFF1FC4FEFF1F000000003C
S1130470164B002B00D1144B9D46402292029A1A2F
S1130480924600218B460F461348144A121A01F073
S113049025FC0F4B002B00D098470E4B002B00D0AF
S11304A098470020002104000D000D48002802D0C8
S11304B00C4800E000BF01F0E1FB2000290000F03F
S11304C08BF901F0B3FBC0460000080000060020D1
S11304D00000000000000000C8FEFF1FA4FFFF1F73
S11304E0000000000000000072B606480649074AF2
S11304F002600A6000F080F900F0C0F962B6FFF70C
S1130500B7FF000080E100E080E200E0FFFFFFFFB2
S11305100048004711050000002934D001230022BF
S113052010B488422CD301242407A14204D281426E
S113053002D209011B01F8E7E400A14204D281427E
S113054002D249005B00F8E7884201D3401A1A43FB
S11305504C08A04202D3001B5C0822438C08A04232
S113056002D3001B9C082243CC08A04202D3001BE8
S1130570DC082243002803D01B0901D00909E3E762
S1130580101C10BC7047002801D00020C04307B4E1
S1130590024802A14018029003BDC04619000000A1
S11305A00029F0D003B5FFF7B9FF0EBC4243891A06
S11305B01847C0467047C04608B50A4B1A68002A57
S11305C001D1094A1A601A6808491018884206D9E4
S11305D001F026FB0C2303600120404201E0186077
S11305E0101C08BDE4FEFF1FA8FFFF1FA801002088
S11305F0F7B5254D071C2C7801910320002C42D11E
S1130600FBB22A7000936B700120112A3BD11F4E5C
S1130610381C6E6000F04CFB381C00F001FB019AA2
S1130620011C301C01F01CF8301C211C01F071F875
S1130630301C211C01F081F8154B80221C60154BE5
S113064012031A60144B8022D2021A60134B211C2D
S1130650AB60134B0222EB60009B6B70114D2B6857
S11306609868231C01F00AFC2B68211C586802229C
S1130670231C01F003FC2B68211CD8680222231CD4
S113068001F0FCFB201CFEBDE8FEFF1F00400540FE
S11306900040855608408559084005595717000001
S11306A077170000C0FEFF1F10B5141C00290CD0E2
S11306B00138012809D8064B1A78002A05D0586851
S11306C0221C9B689847201C01E00120404210BD79
S11306D0E8FEFF1F10B5141C002809D1064B1A7838
S11306E0002A05D05868221CDB689847201C01E0CA
S11306F00120404210BDC046E8FEFF1F38B500F09F
S113070041F900F053F9002000F020F900F032FA2A
S11307100020134900F09AFBFA251249002000F04A
S1130720D9FC6D0010488524640001F07BFB281C73
S113073000F00EFA201C00F0A5FB281C00F008FABB
S1130740201C00F09FFB281C00F002FA201C00F083
S113075099FB281C00F0FCF9201C00F093FB38BD29
S11307600CFEFF1FFCFEFF1FC82C00007FB5134CBE
S1130770012323702378062B1ED8114D114E2B70A4
S113078002230193FA235B0002930F49012300968D
S113079000202A1C00F0C0FD0C4B2978187000289A
S11307A004D132780A4801F03DFB02E0094801F027
S11307B039FB23780133DCE77FBDC046F8FEFF1F19
S11307C002FEFF1F00FEFF1F04FEFF1F20FFFF1F8E
S11307D0EA2C0000FA2C000008B5FFF78FFFFFF7A2
S11307E0C5FFFCE708B5002000F068FB08BD08B5AC
S11307F0002001F037F808BD10B5174B082299788E
S1130800114202D099780A439A70144B882100222D
S113081049015A501249222008701249802040028E
S113082058501868104901401960104910485C5824
S11308302040C024A404204358500E4B80211A7237
S1130840197601211A7059700B490A7099790C2292
S11308501142FBD110BDC04600D0074000700440D7
S113086000E0074044100000FFFFF3FF0410000005
S1130870FFFFFFF00040064000500640154B1649AC
S113088030B51A1E8A420CD0144C0023A408A3428B
S113089004D098000D5801331550F8E7104B9A60B6
S11308A001E00F4A93600F4A0F490023891A8B42D3
S11308B004D0D45C0D48C4540133F8E70C4A0D4904
S11308C00023891A8B4204D0D01800240470013309
S11308D0F8E730BD00000000000000000000000048
S11308E000ED00E0743800003C39000000FEFF1FFA
S11308F0C8FEFF1FA4FFFF1F002812D0012814D137
S11309000A4A80235B001360094A1360094A136092
S1130910094A1360094A1360094A1360094A1360BB
S113092003E08022084B52001A60704700A0145460
S113093014A0145418A014541CA0145428A0145423
S11309402CA0145434A0145430901454002805D10D
S1130950034A80239B001360024A13607047C04619
S11309600CA0145410A01454002805D1034A802369
S11309709B001360024A13607047C04604A01454DD
S113098008A0145408B5002000F064F9012000F018
S113099061F9054B8022120200201A60FFF7ACFFB8
S11309A00120FFF7A9FF08BD90FFFF1F08B5002035
S11309B0FFF7DAFF054B8022D20496211A6000204B
S11309C089011122FFF714FE08BDC04604800C5DA6
S11309D008B5031E05D106484621064A064B01F018
S11309E001F94170002018705860986008BDC04635
S11309F07D2D00006E2D0000DE2D000010B5041EBC
S1130A0005D10A489A210A4A0A4B01F0EBF84378C7
S1130A100120FF2B08D000F06DF963780133DBB2BD
S1130A20637000F05BF9002010BDC0467D2D00000E
S1130A30542D0000DE2D000038B5041C0D1C0028C8
S1130A4006D1A2210748FF31074A084B01F0CAF832
S1130A5000F050F9E3681D43E56000F03FF9002021
S1130A6038BDC0467D2D0000612D0000EA2D000038
S1130A700A4B00229A641A1C40329A631A1C3032C0
S1130A809A621A1C20329A611A1C10329A60044A23
S1130A901360044B9B60DB607047C04638FFFF1F48
S1130AA024FFFF1F28FFFF1F024B00221A60186853
S1130AB080B270470C007C5070B5041C0E1C0028DA
S1130AC005D120486321204A204B01F08BF843785C
S1130AD0002B0AD000F00EF963780025013BDBB24D
S1130AE06370257000F0FAF829E00225002926D069
S1130AF00378002B16D0FFF7D7FF6368A2689842EB
S1130B0001D3C31A03E08021C31A49025B180325E9
S1130B109A4214D200F0EEF80023237000F0DEF8BD
S1130B2002250CE003254B1C09D000F0E3F8012357
S1130B30237000F0D3F8FFF7B7FFA6606060281CAD
S1130B4070BDC0467D2D0000082E0000DE2D000083
S1130B5038B5051CFFF7A8FF041CFFF7A5FF031B0E
S1130B60A04203D28022001B520283189D42F4D279
S1130B7038BD000010B5FFF77BFF094A012313605D
S1130B800849094A0020094C1060086004212160CA
S1130B90074C216007490B6007490860136010BDCA
S1130BA038800450000084500000045000000451B8
S1130BB00400045104000C50000004531F2303409C
S1130BC08021DA05490511434209044892001218AC
S1130BD0081C104301229A40026070472880044098
S1130BE008B5054800F012FE044B1968C9B201317A
S1130BF0FFF792FC08BDC0460040064044801458EC
S1130C0008B5054B186800F025FE0023984201D072
S1130C10024B1B68181C08BD8435000090FFFF1FA1
S1130C2008B5094B1B68DBB2022B06D0032B07D097
S1130C300020012B07D1054805E0FFF7E1FF02E0A2
S1130C40034800F0CDFD08BD04800C5D006CDC029F
S1130C500040064008B5012806D9F0210548FF31B7
S1130C60054A064B00F0BEFF054B185CFFF7A6FFD4
S1130C7008BDC046172E0000EC2F0000942E000083
S1130C80152E000008B5002805D005480549064A78
S1130C90064B00F0A7FF6620FFF790FF08BDC04693
S1130CA0172E00007F020000063000003E2F0000D7
S1130CB008B5002805D005480549064A064B00F04A
S1130CC091FF9420FFF77AFF08BDC046172E00005D
S1130CD0AF0200001F300000762F0000044A1368A2
S1130CE0002B04D0013B1360002B00D162B6704787
S1130CF088FFFF1F72B6024B1A6801321A607047F0
S1130D0088FFFF1F0368F7B51D0AFF263540264AF2
S1130D101E40AB009F58254A041C9A58281C019277
S1130D20FFF798FF0022381C311C00F097FE22794F
S1130D301F2E04D91E489A211E4A1F4B24E0019BF2
S1130D40B6009E1984235B05334352001A60802346
S1130D5062795B0533431A60A27990235B053343C0
S1130D6012011A60E379154A16431A043260002B03
S1130D7018D0134B5B5D002B14D05BB2002B05DA4B
S1130D801048114A114B5D2100F02CFF1F2B04DD8C
S1130D900C485E210C4A0E4BF6E701229A40131CC4
S1130DA00C4A1360F7BDC046183600001036000028
S1130DB03B3000002C320000C33000000000181843
S1130DC020360000CD300000723200006131000096
S1130DD07031000000E100E0F8B50368041CFF2551
S1130DE0180A2840144A1D4083009E58134A9F58ED
S1130DF0FFF730FF301C291C012200F02FFE62682F
S1130E00301C291C00F04AFE227A1F2D05D90C48FB
S1130E10AD210C4A0C4B00F0E5FEAD0088237D1992
S1130E205B052B4392001A6098235B051D43637A8C
S1130E309B012B60F8BDC046183600001036000038
S1130E403B30000040320000C330000038B50C1CB9
S1130E50002802D1002C09D112E003680133F9D033
S1130E60051C0835FFF74EFF281CF6E723680133FD
S1130E7006D0251C201C0C35FFF7AEFF2C1CF5E713
S1130E8038BD0000010A08B5FF231940074A89004C
S1130E908A5818401F2805D90548CB21054A064B16
S1130EA000F0A0FE01238340D36008BD1836000083
S1130EB09B310000593200002332000007B500289E
S1130EC005D00C483C210C4A0C4B00F08BFE0C4B1B
S1130ED01B681A1C0193942302325B0513431B788D
S1130EE0DBB2002B02D000F025FA02E0181C00F05F
S1130EF087FA07BD8432000010330000EF3200008F
S1130F0024330000021C80230C325B0513431B783E
S1130F10002BF7D00171704738B50D1C002806D09E
S1130F20AE210B48FF310B4A0B4B00F05BFE0B4B21
S1130F301C68201C1830291CFFF7BEFD0328F8D0BC
S1130F40002801D004232374207CC0B238BDC046DD
S1130F509B33000032340000EF3200008CFFFF1F8F
S1130F60F0B589B005930EAB01921A78002806D02B
S1130F70F92139484900394A394B00F033FE394BDD
S1130F801B680293384B1C6807AB1880A37C04933E
S1130F900123E374A37453425341DBB203930B88DC
S1130FA09D0A1E3D6A425541EDB2DEB2002D01D0CC
S1130FB01E0ADFB276000023F6B29D4205D1019AE3
S1130FC02B1C002A01D1039AD3B21E4307AB1E7017
S1130FD00122002D01D05F700222A360E26002981A
S1130FE0311CFFF78FFF00200F99FFF795FF277C37
S1130FF0FFB2002F0DD1019B002B0AD0059AA360EC
S1131000E26019780298FFF77DFF381C0F99FFF70B
S113101083FF237C002B17D1039B002B14D0002DBE
S113102002D1019A002A0FD0012700250298E76017
S1131030A56000F097FD391C31430298FFF762FF69
S1131040281C0F99FFF768FF0023207CE374049B9E
S1131050C0B2A37409B0F0BD9B3300005A33000042
S1131060EF320000243300008CFFFF1F10B500286E
S113107006D0E52112484900124A134B00F0B2FD94
S1131080124B1868124B1C68E37C002B05D0237CA0
S1131090052B02D0237C042B09D19823821C5B05E9
S11310A0134300221A7000F06FFD01236374A37CC4
S11310B0002B03D0201C1830FFF7A0FC10BDC04645
S11310C09B33000028330000EF320000243300007B
S11310D08CFFFF1FF7B50D1E04D123485721234A67
S11310E0234B05E0002805D01F48204A214B5821F6
S11310F000F078FD204B214F1B683C6801930126CA
S1131100002C2FD12422081C211C00F0E7FD281CF0
S1131110211C1830FFF75CFC201CFFF7B3FD01987D
S113112000F0D4FC164B3D601B785BB2002B04DA54
S113113014485D21144A154BDAE71F2B04DD1148CE
S11311405E21114A124BD3E7321C9A40131C114AF8
S113115013606E74019E9C235B0502361E4380233C
S11311603370261C301CFEBD9B3300006E33000020
S113117004340000EF320000243300008CFFFF1F12
S113118023330000CD300000203400006131000022
S11311907031000000E100E070B5061C0C1E04D1A3
S11311A00F48A5210F4A104B05E0002805D00C4834
S11311B00C4A0E4BA62100F015FD0D4B4A681D6824
S11311C06B699A420AD0FFF70BFD0A4B011C626857
S11311D01868331C00F088FC64686C6170BDC046FC
S11311E09B330000813300000B340000EF32000019
S11311F08CFFFF1F24330000F0B589B0069211AABA
S1131200079305910E9B1778002805D0B1213B4820
S113121089003B4A3B4B05E0002B05D137483A494E
S1131220374A3A4B00F0DEFC394A12680292394AD6
S11312301468627C002A02D1032020745BE0002F32
S113124001D11E2110910F9A002562602360E56090
S1131250281C25740599A5606574A774FFF79CFF85
S1131260029E902302365B053343039303991023B4
S1131270029A0B70842303325B05134302221A7013
S113128098235B0533430493049A40231370029814
S113129000F068FC109B00950193281C079B05999E
S11312A0069AFFF75DFE237CDBB2AB4212D10399B1
S11312B08C220B700F9952053243012900D1082367
S11312C01370029A1379002F13D010990020FFF79E
S11312D023FE0EE0237C042B0BD1049B02991D708A
S11312E0CB7801255B092B4202D0081C00F04CFC92
S11312F06574207CC0B209B0F0BDC0469B330000C9
S113130045340000EF320000C5020000193400002B
S1131310243300008CFFFF1F1FB5069C0094079C1C
S11313200194089C029401240394FFF765FF04B020
S113133010BD000070B5002806D0AE212748490032
S1131340274A284B00F04EFC274B1D688423EA1CD7
S11313505B05134302221A70244B1C68AB189022BD
S113136052051A431278E978D2B28E0635D5942103
S113137049051943097800292FD0012A15D1EB78A2
S1131380134202D0052323740CE0E0680138E060C6
S1131390002807D0A368281C5A1CA2605978FFF7BC
S11313A0B1FD1AE0FFF762FE17E06268013A62607D
S11313B0002A07D08C214905012A07D10B430822B2
S11313C01A7005E0101CFFF751FE01E00B43187082
S11313D023685A1C22602A791A7070BD9B3300005E
S11313E041330000EF320000243300008CFFFF1F64
S11313F0C31C842040051843022303707047000077
S1131400F0B5071C89B0002805D08F488F49904A51
S1131410904B00F0E7FB904B90211D684905EB7859
S11314200A1CDBB20693AB1DE81C1A43EE78059048
S11314301078F6B2C0B28446942040051843007870
S113144007969826441EA0417605C0B23343039004
S11314501878824CC0B20090A81C0190084301780F
S11314602468C9B2049103990290002930D06046DF
S113147000280CD010231370281CFFF7B9FF236B2E
S1131480002B00D1DEE0626B381C0121D6E000990C
S113149000291DD040221A70281CFFF7A9FF231C25
S11314A02C331B78002B02D1019A16433370236B23
S11314B0002B03D000208021626B9847E37D002B32
S11314C004D0201C18308021FFF7B6FA0A23B8E0B4
S11314D0079B281C9E11FFF78BFF06980127031119
S11314E03E403B4219D0902305995B050B431022E3
S11314F01A70002E04D0E8784007C00F10D11AE00B
S1131500082323702C342378002B00D09AE09822EF
S1131510019852050243137094E0002E15D0EAE7B7
S1131520029910230B70236B002B69D00020022139
S1131530626B984764E0029A1070236B002B02D010
S1131540626B042198472B797CE0049B012B27D103
S1131550EB780498034253D002990E702B79231C24
S11315602C331B78002B07D1039A002A04D198232B
S113157001985B0503431A70236B002B03D00020F2
S11315800821626B9847A37D002B04D0201C1830DF
S11315900821FFF751FA00236360E360237551E0EB
S11315A02B79A268DBB2002A28D021690B70236949
S11315B001332361A368013BA360A368002B41D1DD
S11315C0039A002A11D1231C2C331B78002B04D13D
S11315D0982301985B0503431A70E37D002B04D024
S11315E0201C18302021FFF727FA236B0020607598
S11315F02061834226D0626B20211FE0072320E074
S11316006368002B1CD0E1680B78291C80220C3104
S113161052050A431278002AF7D02B71E36801338C
S1131620E3606368013B6360606800280AD1236B50
S1131630E0602075002B05D0626B1021984701E013
S11316400623237009B0F0BD733400003302000098
S11316505B340000EF320000243300008CFFFF1FD6
S1131660F0B50F1C87B091000390381C141CFEF7D2
S113167053FF82B29100381C0492FEF74DFF251AE5
S1131680A04200D9051B0526331C634304220293A0
S113169001920299381CFEF73FFF81B20590714315
S11316A0381CFEF739FF231AA04200D9031BAB42B2
S11316B004D8059A1D1C92B204920196029B01362D
S11316C01B190293212EE4D1201C6421FEF724FF70
S11316D00323434301209D4219D2019B043B032B66
S11316E006D8039AC4235B051343802292021A602E
S11316F0039AE1235B051343019A0020013A120681
S11317001A60039A83235B051343049A1A6007B093
S1131710F0BDF42310B55B05022903D118438023DF
S11317209B0508E0041C9022083452052243090159
S1131730184311600023036010BD842308304A0855
S11317405B05034352001A6080235B0518430123A1
S113175019400160704710B58A1891420AD0DC2301
S1131760041D5B0523431B68002BF8D00B78013163
S1131770C360F2E710BD30B5031C8A180020914203
S113178014D0D4241D1D64052C432468002CF8D0E7
S1131790DC680C70CC2464052C432568002D03D030
S11317A08020000320600D200131E8E730BD0000F7
S11317B084235B0503431A7800239A4209D08023CB
S11317C05B05013018430378012B01D1024B00E083
S11317D0024B181C7047C04600127A0080841E0019
S11317E038B5084A031C083313431D78064A031C02
S11317F0183313431C78FFF7DBFFEDB2E4B22C1966
S1131800E04038BD000090100000101010B50D4AE3
S1131810831D13431B78041CDBB2002B0FD0012B58
S113182007D1FFF7C5FF084B08341C432378D84081
S113183006E00020022B03D1044B186800E00448A2
S113184010BDC046000008110000901090FFFF1F5B
S1131850006CDC029C235B0518430078431E98410E
S1131860C0B2704707B5002805D00C483A210C4A8D
S11318700C4B00F0B7F90C4B1B681A1C0193902316
S113188003325B0513431B78DBB2002B02D000F05C
S11318902BF802E0181C00F091F807BDF4340000A6
S11318A0E13400005F350000803500000C4A08B5C3
S11318B080000C4B8158C3589C2003314005002202
S11318C008431A7102709420400501430A701A7F7C
S11318D0002A03D0181C2030FFF790F808BDC0463A
S11318E08035000094FFFF1F10B51F4B8200D358B2
S11318F01E4952581979002934D05969002911D048
S11319009C2149051143097800290BD09479D968A1
S1131910E4B2002903D00C70D9680131D960596947
S1131920013959611969002914D0942149051143D9
S1131930097800290ED09968002903D00C78013168
S1131940996000E00C1C94711A69013A1A619A6951
S113195001329A611A69002A04D15B69002B01D112
S1131960FFF7A4FF10BDC04694FFFF1F80350000A1
S113197008B5104B8000C3580F4A81580022581CE8
S1131980C2779C20033140050843DA621A701A8337
S11319905A629A621A6302709420400501430A70E5
S11319A01A1C38321278002A03D0181D0121FFF7BF
S11319B043F808BD94FFFF1F8035000038B5254B60
S11319C08200D35824495258591CC97F00293FD05A
S11319D0D96A002916DB94214905114309780029A5
S11319E010D0596A1C7F002905D0DD6A002D02DD64
S11319F00C78013159629471D96A0139D962596BF1
S1131A0001315963D96A002905DA9421D41C4905A6
S1131A10214300240C70196B002911DD9C21490518
S1131A201143097800290BD091799A6AC9B2002A26
S1131A3003D011709A6A01329A621A6B013A1A63DE
S1131A40DA6A002A04DC1B6B002B01DCFFF790FF31
S1131A5038BDC04694FFFF1F8035000008B51F291C
S1131A6005D90B482C210B4A0B4B00F0BBF8143062
S1131A708023012A04D11B058A401843111C04E069
S1131A80DB04184301238B40D943016008BDC046E1
S1131A9088350000E53500002332000008B51F2911
S1131AA005D907484021074A074B00F09BF801235A
S1131AB08B40002A01D0436000E0836008BDC0462B
S1131AC088350000F8350000233200000023C222CC
S1131AD0037043708370C37043718371C371037265
S1131AE042728372C3727047F0B587B00293FA23CF
S1131AF09B005343002701250490059101936D42F7
S1131B003C1C00970123A34003930026144A059824
S1131B1093195988039B5943FEF7FEFC019A831AD3
S1131B20824200D9131AAB4204D20D4A0094975D45
S1131B301D1E02D00436C82EE8D10134032C01D076
S1131B40002DDFD1029B002B00D01D60009A3F23A3
S1131B501F4093011F43049BFFB25F7007B0F0BDA9
S1131B6022360000942302305B0503431B78002BCC
S1131B7004D088235B051843042303E080231B055A
S1131B80184330230370704710B59422831C520508
S1131B901A431478011C0220012C1CD11278012A4A
S1131BA006D004210C48FF310C4A0D4B00F01AF802
S1131BB08022D2041343CF221A708023DB00C8781A
S1131BC02022024004D0013B002B03D0C046F6E79C
S1131BD0101C00E0092010BDEA3600006237000046
S1131BE0453700007FB5061C09480068C068002A14
S1131BF002D0151C074C01E0074C251C1A1C00914F
S1131C00331C06490194029500F026F800F046FDC5
S1131C10C0FEFF1F73370000E92C0000803700006E
S1131C20014B18687047C046C0FEFF1F084B10B533
S1131C30041C002B02D0002100E000BF054B1868F3
S1131C40836A002B00D09847201C01F03BF8C04663
S1131C5000000000B43700000EB403B503AB04CB9E
S1131C60054A011C1068039A019300F0BBF902B005
S1131C7008BC03B01847C046C0FEFF1F70B50E4B2A
S1131C800E4D0024ED1AAD101E1CAC4204D0A3006E
S1131C90F35898470134F8E701F0D8FD084B094D93
S1131CA00024ED1AAD101E1CAC4204D0A300F3585E
S1131CB098470134F8E770BD6C3800006C380000B8
S1131CC06C3800007038000008B5034B011C18681C
S1131CD000F054F808BDC046C0FEFF1F031C821864
S1131CE0934202D019700133FAE7704730B50029E6
S1131CF040D004390B68002B00DAC9181E4A136857
S1131D00141C002B02D14B60116033E099420FD2B6
S1131D1008680A189A4205D113685268C018086006
S1131D204A6000E04B60216024E08A4203D8131C1F
S1131D305A68002AF9D11D685C198C420BD10968D4
S1131D40691858181960904214D114685268091916
S1131D5019605A600EE08C4202D90C23036009E03A
S1131D6008680C18944203D114685268001908607A
S1131D704A60596030BDC0469CFFFF1F70B5032305
S1131D80CD1C9D430835061C0C2D01D20C2501E009
S1131D90002D3FDB8D423DD3204B1C681A1C211CB7
S1131DA0002913D00868431B0DD40B2B02D90B60F8
S1131DB0CC181EE08C4202D1636813601AE04868B4
S1131DC060600C1C16E00C1C4968E9E7144C2068A0
S1131DD0002803D1301C00F03FF82060301C291C7F
S1131DE000F03AF8431C15D0C41C03239C438442DE
S1131DF00AD12560201C0B300722231D9043C31AEF
S1131E000BD05A42E25008E0211A301C00F024F8AA
S1131E100130EED10C233360002070BD9CFFFF1F06
S1131E2098FFFF1F0FB40B4B13B51C68002C05D093
S1131E30A369002B02D1201C00F040FD05ABA16872
S1131E40201C049A019300F0CDF816BC08BC04B021
S1131E501847C046C0FEFF1F38B5074C0023051CB9
S1131E60081C2360FEF7A8FB431C03D12368002B46
S1131E7000D02B6038BDC046A0FFFF1FF7B51E1C65
S1131E803C4B041C1D680F1C0192002D05D0AA694F
S1131E90002A02D1281C00F011FD374B9C4201D1CD
S1131EA06C6808E0354B9C4201D1AC6803E0344BCC
S1131EB09C4200D1EC68019B022B57D8002E55DBC5
S1131EC0281C211C00F07AFC00236360A361A38911
S1131ED01A0603D5281C2169FFF708FFA38983226A
S1131EE09343A381019B022B13D0002F25D1002EF5
S1131EF001D18026F600301CFFF7E6FE071E18D13C
S1131F008020C000FFF7E0FE071E10D101204042F0
S1131F1000E00020A38902221343A3810023A360CD
S1131F20231C4733236023610123636120E080265F
S1131F30F600A38980221343A381019A012A04D1C4
S1131F40A3891343A3817342A3610E4B0020AB62A8
S1131F50A3892760276166611A0709D50322134004
S1131F605A4253415B421E40A66001E001204042B8
S1131F70FEBDC046C0FEFF1FEC3700000C38000059
S1131F802C380000152800000023C25C0133002A0D
S1131F90FBD1581E7047936810B5013B9360002B2A
S1131FA005DA9469A34208DBCBB20A2B05D0136887
S1131FB0581C10601970C8B201E000F0A5FA10BDF9
S1131FC0F8B5061C0F1C141CD518AC4208D0217897
S1131FD0301C3A1CFFF7DFFF0134431CF5D100E04D
S1131FE00020F8BDF0B59FB0061C0F1C03920593AA
S1131FF0002804D08169002901D100F05FFC754BF1
S11320009F4201D1776808E0734B9F4201D1B768C2
S113201003E0724B9F4200D1F768BB891A070AD5C7
S11320203B69002B07D006AD00236B6120236B7640
S11320303023AB763BE0301C391C00F0BDFA00289D
S1132040F1D001204042C2E0059A111D12680591A9
S1132050002A76DB0992013423782E2B00D181E00B
S113206021785F48032200F0E9FC002807D05C498E
S11320702A68431A4020984010432860013421788C
S1132080631C584806220393297600F0D7FC0028E5
S113209000D18AE0544B002B7ED1059B07220733E5
S11320A09343083305936A69049953186B61039C3D
S11320B02378002B04D10399611A029110D003E014
S11320C0252BF8D00134F3E7301C391C039A029B0A
S11320D0FFF776FF013075D06A69029953186B6176
S11320E02378002B6ED0012252426A606A46002394
S11320F05B3201342B60EB60AB601370AB6521780D
S11321003A48052200F09AFC002808D0374A0134E6
S1132110831A012098402B6818432860EFE72B6846
S1132120D90603D56A4620215B3211701A0703D5FC
S11321306A462B215B32117022782A2A84D0099BAB
S113214005E05242EA60022213432B6083E72278BF
S1132150303A092A04D80A214B4301349B18F6E784
S1132160099379E763782A2B09D1059B02341A1D58
S11321701B680592002B0DDA01235B420AE001344F
S113218000232278303A092A04D80A214B43013427
S11321909B18F6E7079363E705AB0093301C291CF3
S11321A03A1C134B00E000BF07E005AB0093301C62
S11321B0291C3A1C0E4B00F091F80490049901314B
S11321C000D070E7BB895A0600D53AE70B981FB0D8
S11321D0F0BDC046EC3700000C3800002C3800007D
S11321E0BE370000C237000000000000B83700000E
S11321F0C11F0000F7B5151C01930A698B68061C02
S11322000C1C934200DA131C221C2B6043321278FC
S1132210002A01D001332B602068800602D52B6888
S113222002332B60216806270F401FD0231C433341
S11322301B785A1E9341226892061FD5E11840313B
S11322403020C870211C5A1C45310978A21840322C
S11322500233D17012E0221C301C0199193201237F
S1132260089FB847013011D0009F01370097E068FC
S11322702968009F431A9F42EDDBD7E7221C301CDC
S113228001994332089FB847013002D101204042EE
S113229023E0206806212B68E26801400025042918
S11322A003D1D51AEB43DB171D40A26823699A4278
S11322B001DDD31AED1800270097009FAF420BDA17
S11322C0221C301C01991A320123089FB84701309F
S11322D0DCD0009F0137EFE70020FEBDF0B50D1CF8
S11322E08BB0433506920590079304950B7E0C1C26
S11322F0109A6E2B00D1A7E011D8632B22D009D8F5
S1132300002B00D1B0E0582B00D0C0E045310B7059
S11323107B4D4EE0642B1CD0692B1AD0B7E0732B95
S113232000D1A5E009D86F2B29D0702B00D0AEE0E6
S11323300E68202333430B6036E0752B1FD0782BB7
S113234032D0A4E013680D1C191D423511601B68BE
S11323509FE0216813680E0603D5191D11601E68DD
S113236005E04806F9D5191D116000215E5E644B35
S1132370002E3BDA049D2D2276422A7036E0216835
S113238013680E0603D5191D11601E6804E0480683
S1132390F9D5191D1E881160594B227E0393082715
S11323A06F2A1ED00A271CE0231C78214533554D83
S11323B0197011682368081D039510601E0601D565
S11323C00E6802E05806FBD50E88D90702D52022F4
S11323D0134323601027002E03D1226820239A433D
S11323E02260231C002243331A7001E003930A275E
S11323F06368A360002B03DB2568042295432560F2
S1132400002E02D1049D002B0ED0049D301C391CDB
S1132410FEF7C6F80398013D435C301C2B70391C51
S1132420FEF77AF8061EF1D1082F09D12168C907F1
S113243006D5626823699A4202DC013D30232B7081
S1132440049E731B23612AE0086813684969050622
S113245004D5181D10601B68196005E04606F8D500
S1132460181D10601B68198000232361049D16E069
S11324701368191D11601D68281CFFF785FD63682A
S11324802061984200D923612069606004E0251C22
S113249042352B7001232361049E00233370079E71
S11324A005980096211C09AA069BFFF7A3FE01309C
S11324B002D10120404221E02A1C05980699236993
S11324C0079DA8470130F4D02668B60705D4099BB8
S11324D0E068984212DA181C10E00025E0680999B7
S11324E0431A9D42F3DA221C0598069919320123F6
S11324F0079EB0470130DCD00135EFE70BB0F0BDEB
S1132500C9370000DA37000070B5051C0E1C141C16
S1132510002804D08269002A01D100F0CFF9234BAE
S11325209C4201D16C6808E0214B9C4201D1AC680B
S113253003E0204B9C4200D1EC68A369A360A3890B
S11325401A070AD52369002B07D022682369F6B23B
S1132550D01A626990420FDB08E0281C211C00F0AD
S11325602BF80028F1D0012040421DE0281C211C3A
S113257000F024F90028F6D1A3680130013BA360E0
S113258023685A1C22601E706369984205D0A3898F
S1132590301CDA0708D50A2E06D1281C211C00F0AD
S11325A00DF90028DFD1301C70BDC046EC370000A7
S11325B00C3800002C380000344B70B51D68061C24
S11325C00C1C002D05D0A969002902D1281C00F09B
S11325D075F92F4B9C4201D16C6808E02D4B9C424D
S11325E001D1AC6803E02C4B9C4200D1EC68A28979
S11325F093B2190721D4D90605D4092333604023A3
S11326001A43A2813FE05A0713D5616B002908D011
S1132610231C4433994202D0301CFFF767FB00238C
S11326206363A38924229343A38100236360236902
S11326302360A38908221343A381216900290BD1B4
S1132640A389A02292001A4080239B009A4203D0BF
S1132650301C211C00F0A2F9A38901221A4005D0E4
S113266061690022A2604A42A26103E0990700D492
S11326706269A26022690020824206D1190604D54B
S113268040221343A3810120404270BDC0FEFF1FBE
S1132690EC3700000C3800002C38000008B5062088
S11326A000F002FA012000F00DFBF7B58B89051C40
S11326B00C1C19075ED46268002A02DC276C002F08
S11326C01ADDE76A002F17D000222E682A608022C4
S11326D052011A4001D0626D15E0281C216A0123C1
S11326E0B847021C411C0ED12B68002B0BD01D2BAC
S11326F001D0162B02D12E6000205EE0A389402178
S11327000B43A38159E0A3895F0706D56168636B16
S1132710521A002B01D0276CD21B281C216A0023DB
S1132720E76AB847A289411C06D12B68002B03D065
S11327301D2B01D0162B19D100236360236923605C
S1132740D70405D5411C02D12A68002A00D160654E
S1132750616B2E600029CFD0231C4433994202D0F0
S1132760281CFFF7C3FA0020606326E040231A43C5
S1132770A28122E02669002EBED027680022BF1B5A
S113278001972660990700D16269A260019F002F1A
S1132790B2DD281C216A321C019BA76AB8470028B5
S11327A006DCA389402213430120A381404204E0B4
S11327B0019F36183F1A0197E8E7FEBD0A6938B54C
S11327C0051C0C1C002A01D100201CE0002804D0A8
S11327D08369002B01D100F071F80B4B9C4201D1AD
S11327E06C6808E0094B9C4201D1AC6803E0084BDB
S11327F09C4200D1EC680C22A35E002BE4D0281C80
S1132800211CFFF752FF38BDEC3700000C380000E4
S11328102C380000F8B5041C071C4834002C12D0D6
S1132820A5686668013E0CD4AB89012B07D90E223A
S1132830AB5E013303D0381C291CFFF7BFFF68359A
S1132840F0E72468EAE7F8BD002310B5041C036030
S11328504360836081814366C28103614361836114
S1132860191C08225C30FFF739FA054B24626362B5
S1132870044BA362044BE362044B236310BDC046C4
S1132880E92A0000112B0000492B0000752B0000E1
S113289070B54B1E68255D430E1C291C7431FFF76F
S11328A06DFA041E08D00021016046602A1C0C3019
S11328B0A0606832FFF712FA201C70BD836913B55B
S11328C0041C002B27D18364C3640365124B134A91
S11328D01B688262984201D101238361201C00F0AD
S11328E01FF86060201C00F01BF8A060201C00F0A2
S11328F017F80421E06000226068FFF7A5FFA068D4
S113290009210122FFF7A0FFE06812210222FFF74C
S11329109BFF0123A36113BDB437000015280000F9
S1132920F8B51D4B071C1E68B269002A02D1301C81
S1132930FFF7C4FF4836B4687368013B05D40C2222
S1132940A55E002D10D06834F7E73368002B06D15C
S1132950381C0421FFF79CFF3060002801D0366842
S1132960E9E70C233B6016E001235B42E381201C72
S11329700123A38165662560A560656025616561A5
S1132980A5615C30291C0822FFF7A8F96563A563DB
S1132990A564E564201CF8BDB4370000F0B58B894C
S11329A091B0051C0C1C9A0725D40E23C95E00297E
S11329B006DAA78980231F400FD0002740260EE0A7
S11329C001AA00F003F90028F3DB029BF0273F0281
S11329D0184A1F40BF187B425F418026F600281C1E
S11329E0311CFFF7CBF900280CD1A3899A051FD419
S11329F002221343A381231C473323602361012351
S1132A00636115E00C4B8022AB62A3892060134301
S1132A10A38120616661002F0AD00E23E15E281C89
S1132A2000F0E6F8002803D0A38901221343A38110
S1132A3011B0F0BD00E0FFFF15280000C9B28218F4
S1132A40904204D003788B4202D00130F8E7002092
S1132A50704738B5041C0D1E1F2D04D916230360BE
S1132A60012040421FE0436C002B04D08A009A18D6
S1132A701368002B08D1201C00F032F82A1C011C1A
S1132A80201C00F01BF80EE0012B0BD0591C03D1C5
S1132A9016230360012006E00024281C14609847D4
S1132AA0201C00E0002038BD08B5034B011C186849
S1132AB0FFF7CFFF08BDC046C0FEFF1F38B5074C67
S1132AC00023051C081C111C236000F0EBF8431CB8
S1132AD003D12368002B00D02B6038BDA0FFFF1F5B
S1132AE008B500F0CFF808BD38B50C1C0E25495FB9
S1132AF000F0A4F8002803DB626D1318636503E09B
S1132B00A289024B1340A38138BDC046FFEFFFFFEB
S1132B10F8B51E1C8B89051C0C1C171CDA0505D581
S1132B200E23C95E0022022300F074F8A289054B2B
S1132B30281C1340A3810E22A15E331C3A1C00F012
S1132B401FF8F8BDFFEFFFFF38B50C1C0E25495FD9
S1132B5000F060F8A389421C03D1054A1340A38105
S1132B6004E0802252011343A381606538BDC0464E
S1132B70FFEFFFFF08B50E23C95E00F015F808BD8E
S1132B8038B5084C051C00202060081C111C1A1CB8
S1132B90FDF78AFD431C03D12368002B00D02B6072
S1132BA038BDC046A0FFFF1F38B5074C0023051CE5
S1132BB0081C236000F056F8431C03D12368002B43
S1132BC000D02B6038BDC046A0FFFF1F38B5074CAE
S1132BD00023051C081C111C236000F04BF8431C47
S1132BE003D12368002B00D02B6038BDA0FFFF1F4A
S1132BF038B5074C0023051C081C236000F04AF874
S1132C00431C03D12368002B00D02B6038BDC04681
S1132C10A0FFFF1F38B5084C051C00202060081CCD
S1132C20111C1A1C00F046F8431C03D12368002B26
S1132C3000D02B6038BDC046A0FFFF1F38B5084C3C
S1132C40051C00202060081C111C1A1CFDF742FD05
S1132C50431C03D12368002B00D02B6038BDC04631
S1132C60A0FFFF1F024B5822012040421A60704708
S1132C70A0FFFF1F024B5822012040421A607047F8
S1132C80A0FFFF1F024B5822012040421A607047E8
S1132C90A0FFFF1F024B582200201A607047C04655
S1132CA0A0FFFF1F024B5822012040421A607047C8
S1132CB0A0FFFF1F024B5822012040421A607047B8
S1132CC0A0FFFF1FFEE7C0460D0A3D3D3D3D3D3DD3
S1132CD0205354415254204F462054455354203DD0
S1132CE03D3D3D3D3D0D0A0D0A00307825303258FA
S1132CF02C3078253032580D0A003078253032785F
S1132D002C4552524F520D0A00537465702064656D
S1132D107465637465642E205374657020636F75E5
S1132D206E743A2025642E0D0A0054657374205085
S1132D306F696E7420312E204D6F76696E67206145
S1132D407665726167652076616C75653A202564E5
S1132D502E0D0A004F53415F53656D61506F7374BC
S1132D60004F53415F4576656E74536574004F534D
S1132D70415F53656D61437265617465002F686FCF
S1132D806D652F6D697436733139346961702F4400
S1132D9065736B746F702F7465616368696E672DFA
S1132DA0637565642D346232352F4B53444B5F3168
S1132DB02E312E302F706C6174666F726D2F6F73AD
S1132DC0612F7372632F66736C5F6F735F616273DD
S1132DD07472616374696F6E5F626D2E6300705309
S1132DE0656D00704D7574657800704576656E7418
S1132DF00068616E646C6572007175657565007359
S1132E006574466C616773004F53415F53656D6130
S1132E105761697400898A2F686F6D652F6D6974B5
S1132E2036733139346961702F4465736B746F7014
S1132E302F7465616368696E672D637565642D34ED
S1132E406232352F4B53444B5F312E312E302F706D
S1132E506C6174666F726D2F73797374656D2F7303
S1132E6072632F636C6F636B2F4D4B4C30335A344A
S1132E702F66736C5F636C6F636B5F4D4B4C3033C9
S1132E805A342E63004E554C4C20213D20636F6E06
S1132E9066696700696E7374616E6365203C2073B4
S1132EA0697A656F6628706F7274476174655461DE
S1132EB0626C65292F73697A656F6628706F727406
S1132EC0476174655461626C655B305D2900696EAD
S1132ED07374616E6365203C2073697A656F66283C
S1132EE0616463476174655461626C65292F736919
S1132EF07A656F6628616463476174655461626CC6
S1132F00655B305D2900696E7374616E6365203C96
S1132F102073697A656F66287370694761746554B4
S1132F2061626C65292F73697A656F6628737069AD
S1132F30476174655461626C655B305D2900696E3C
S1132F407374616E6365203C2073697A656F6628CB
S1132F50693263476174655461626C65292F7369D2
S1132F607A656F6628693263476174655461626C7F
S1132F70655B305D2900696E7374616E6365203C26
S1132F802073697A656F66286C7075617274476125
S1132F9074655461626C65292F73697A656F66285C
S1132FA06C7075617274476174655461626C655BC1
S1132FB0305D2900696E7374616E6365203C207313
S1132FC0697A656F662874706D47617465546162CF
S1132FD06C65292F73697A656F662874706D476113
S1132FE074655461626C655B305D2900434C4F43EA
S1132FF04B5F5359535F456E61626C65506F7274D9
S1133000436C6F636B00434C4F434B5F5359535FA7
S1133010456E61626C65493263436C6F636B004358
S11330204C4F434B5F5359535F456E61626C654C23
S11330307075617274436C6F636B002F686F6D659C
S11330402F6D697436733139346961702F44657337
S11330506B746F702F7465616368696E672D637537
S113306065642D346232352F4B53444B5F312E311E
S11330702E302F6C69622F6B73646B5F706C61749C
S1133080666F726D5F6C69622F61726D6763632F27
S11330904B4C30335A342F2E2E2F2E2E2F2E2E2FD4
S11330A02E2E2F706C6174666F726D2F68616C2F99
S11330B0696E632F66736C5F706F72745F68616CA6
S11330C02E680070696E203C20333255002F686FE3
S11330D06D652F6D697436733139346961702F44AD
S11330E065736B746F702F7465616368696E672DA7
S11330F0637565642D346232352F4B53444B5F3115
S11331002E312E302F6C69622F6B73646B5F706C81
S11331106174666F726D5F6C69622F61726D676353
S1133120632F4B4C30335A342F2E2E2F2E2E2F2E0E
S11331302E2F2E2E2F706C6174666F726D2F737923
S11331407374656D2F696E632F66736C5F696E743B
S11331506572727570745F6D616E616765722E68F9
S11331600030203C3D206972714E756D62657200BD
S11331706972714E756D626572203C3D2046534CF8
S11331805F464541545552455F494E544552525548
S113319050545F4952515F4D4158002F686F6D651F
S11331A02F6D697436733139346961702F446573D6
S11331B06B746F702F7465616368696E672D6375D6
S11331C065642D346232352F4B53444B5F312E31BD
S11331D02E302F6C69622F6B73646B5F706C61743B
S11331E0666F726D5F6C69622F61726D6763632FC6
S11331F04B4C30335A342F2E2E2F2E2E2F2E2E2F73
S11332002E2E2F706C6174666F726D2F68616C2F37
S1133210696E632F66736C5F6770696F5F68616C5A
S11332202E680070696E203C20333200504F525497
S11332305F48414C5F53657450756C6C436D64001A
S1133240504F52545F48414C5F536574536C6577DB
S1133250526174654D6F6465004750494F5F484142
S11332604C5F546F67676C6550696E4F7574707509
S11332707400494E545F5359535F456E61626C65E7
S1133280495251002F686F6D652F6D697436733123
S113329039346961702F4465736B746F702F746572
S11332A0616368696E672D637565642D34623235B8
S11332B02F4B53444B5F312E312E302F706C617481
S11332C0666F726D2F647269766572732F737263A1
S11332D02F6932632F66736C5F6932635F73686151
S11332E07265645F66756E6374696F6E2E630069E0
S11332F06E7374616E6365203C2048575F493243A6
S11333005F494E5354414E43455F434F554E54001D
S11333104932435F4452565F49525148616E646C6E
S113332065720008006006404932435F4452565FAC
S1133330436F6D706C6574655472616E736665720B
S1133340004932435F4452565F4D6173746572495C
S1133350525148616E646C6572004932435F445255
S1133360565F53656E6441646472657373004932D9
S1133370435F4452565F4D6173746572496E69745C
S1133380004932435F4452565F4D61737465725312
S113339065744261756452617465002F686F6D6570
S11333A02F6D697436733139346961702F446573D4
S11333B06B746F702F7465616368696E672D6375D4
S11333C065642D346232352F4B53444B5F312E31BB
S11333D02E302F706C6174666F726D2F6472697613
S11333E06572732F7372632F6932632F66736C5F18
S11333F06932635F6D61737465725F647269766567
S1133400722E63006D61737465720064657669631E
S11334106500747842756666007278427566660067
S1133420494E545F5359535F456E61626C6549520E
S113343051004932435F4452565F4D617374657263
S113344057616974004932435F4452565F4D61735A
S113345074657252656365697665004932435F44F9
S113346052565F536C61766549525148616E646C83
S11334706572002F686F6D652F6D6974367331390D
S1133480346961702F4465736B746F702F74656158
S11334906368696E672D637565642D346232352FF8
S11334A04B53444B5F312E312E302F706C61746658
S11334B06F726D2F647269766572732F7372632FE6
S11334C06932632F66736C5F6932635F736C617614
S11334D0655F6472697665722E6300736C617665EC
S11334E0005350495F4452565F49525148616E64DB
S11334F06C6572002F686F6D652F6D69743673315A
S113350039346961702F4465736B746F702F7465FF
S1133510616368696E672D637565642D3462323545
S11335202F4B53444B5F312E312E302F706C61740E
S1133530666F726D2F647269766572732F7372632E
S11335402F7370692F66736C5F7370695F73686142
S11335507265645F66756E6374696F6E2E6300696D
S11335606E7374616E6365203C2048575F53504905
S11335705F494E5354414E43455F434F554E5400AB
S113358000600740005006402F686F6D652F6D691D
S11335907436733139346961702F4465736B746F99
S11335A0702F7465616368696E672D637565642D3A
S11335B0346232352F4B53444B5F312E312E302F32
S11335C0706C6174666F726D2F68616C2F737263B7
S11335D02F6770696F2F66736C5F6770696F5F68C0
S11335E0616C2E63004750494F5F48414C5F5365FF
S11335F07450696E446972004750494F5F48414CAA
S11336005F577269746550696E4F75747075740094
S11336100090044000A0044000F00F4040F00F4030
S11336201E1F000014000100160002001800030011
S11336301A0004001C0005001E00090020000600FA
S113364022000A002400070028000C002C001000AF
S1133650300011003800120040000F004400130035
S113366048001400500015005800190060001600AE
S113367068001A007000170080001C0090001D00F4
S1133680A0001E00C0002200E0001F00F000230084
S113369000012400200125004001260080012A00A9
S11336A0C0012700E0012B0000022C0040022D0085
S11336B080022E000003320080032F00C003330079
S11336C000043400800435000005360000063A008A
S11336D00007370080073B0000083C0000093D005C
S11336E0000A3E00000C3F00000F2F686F6D652F2D
S11336F06D697436733139346961702F4465736B45
S1133700746F702F7465616368696E672D63756586
S1133710642D346232352F4B53444B5F312E312E9E
S1133720302F706C6174666F726D2F68616C2F73CB
S113373072632F6932632F66736C5F6932635F68EB
S1133740616C2E630042525F4932435F43315F4DE7
S1133750535428626173654164647229203D3D209D
S113376031004932435F48414C5F53656E64537482
S11337706F70002C2066756E6374696F6E3A20005A
S1133780617373657274696F6E20222573222066DB
S113379061696C65643A2066696C65202225732230
S11337A02C206C696E65202564257325730A0043FB
S11337B00000000060FEFF1F232D302B2000686CEA
S11337C04C00656667454647003031323334353640
S11337D03738394142434445460030313233343579
S11337E036373839616263646566000000000000A2
S11337F000000000000000000000000000000000C5
S113380000000000000000000000000000000000B4
S113381000000000000000000000000000000000A4
S11338200000000000000000000000000000000094
S11338300000000000000000000000000000000084
S1133840000000000000000000000000F8B5C046C1
S1133850F8BC08BC9E467047F8B5C046F8BC08BC26
S10738609E467047C5
S10B38640CCCFF7F0100000001
S107386C3904000017
S1073870110400003B
S1133874FFFFFF001D000000640000000A010000B7
S113388401000000010000000B0100000100000021
S1133894010000000D01000001000000010000000F
S11338A40C00000001000000010000000200000000
S11338B401000000010000000D01000001000000EF
S11338C401000000FFFFFFFF0000000000000000F3
S11338D400000000EC3700000C3800002C38000015
S11338E400000000000000000000000000000000D0
S11338F4AF370000000000000000000000000000DA
S113390400000000000000000000000000000000AF
S1133914000000000000000000000000000000009F
S1133924000000000000000000000000000000008F
S10B393460FEFF1F000000000B
S90304E90F
