S02B00002F686F6D652F6D697436733139346961702F4465736B746F702F7465616368696E672D637565642D8C
S113000000060020E90400001105000011050000AD
S113001000000000000000000000000000000000DC
S113002000000000000000000000000011050000B6
S11300300000000000000000110500001105000090
S11300401105000011050000110500001105000054
S11300501105000011050000110500001105000044
S1130060B90B000011050000C30B000011050000CE
S11300701105000011050000110500001105000024
S11300801105000011050000110500001105000014
S11300901105000011050000110500001105000004
S11300A011050000110500001105000011050000F4
S11300B011050000110500001105000011050000E4
S1130400FFFFFFFFFFFFFFFFFFFFFFFFFE3DFFFFBB
S113041010B5064C2378002B07D1054B002B02D0D6
S1130420044800E000BF0123237010BDBCFEFF1F81
S113043000000000983A000008B5084B002B03D0D8
S11304400748084900E000BF07480368002B03D0B1
S1130450064B002B00D0984708BDC04600000000A2
S1130460983A0000C0FEFF1FB8FEFF1F0000000006
S1130470164B002B00D1144B9D46402292029A1A2F
S1130480924600218B460F461348144A121A01F073
S113049067FD0F4B002B00D098470E4B002B00D06C
S11304A098470020002104000D000D48002802D0C8
S11304B00C4800E000BF01F023FD2000290000F0FB
S11304C06BFB01F0F5FCC0460000080000060020AC
S11304D00000000000000000BCFEFF1FE4FFFF1F3F
S11304E0000000000000000072B606480649074AF2
S11304F002600A6000F06AFB00F0AAFB62B6FFF734
S1130500B7FF000080E100E080E200E0FFFFFFFFB2
S1130510004800471105000002B47146490849002B
S1130520095C49008E4402BC7047C046002934D09F
S11305300123002210B488422CD301242407A142B1
S113054004D2814202D209011B01F8E7E400A1426E
S113055004D2814202D249005B00F8E7884201D309
S1130560401A1A434C08A04202D3001B5C082243E1
S11305708C08A04202D3001B9C082243CC08A04252
S113058002D3001BDC082243002803D01B0901D03E
S11305900909E3E7101C10BC7047002801D00020B3
S11305A0C04307B4024802A14018029003BDC046EC
S11305B0190000000029F0D003B5FFF7B9FF0EBC05
S11305C04243891A1847C0467047C04608B50A4BCB
S11305D01A68002A01D1094A1A601A6808491018D1
S11305E0884206D901F05EFC0C23036001204042DE
S11305F001E01860101C08BDD8FEFF1FE8FFFF1FB4
S1130600E8010020F7B5254D071C2C780191032043
S1130610002C42D1FBB22A7000936B700120112A86
S11306203BD11F4E381C6E6000F01EFD381C00F0DC
S1130630D3FC019A011C301C01F04CF8301C211C25
S113064001F0A1F8301C211C01F0B1F8154B8022F7
S11306501C60154B12031A60144B8022D2021A60DC
S1130660134B211CAB60134B0222EB60009B6B709D
S1130670114D2B689868231C01F042FD2B68211C46
S113068058680222231C01F03BFD2B68211CD8680A
S11306900222231C01F034FD201CFEBDDCFEFF1FE2
S11306A000400540004085560840855908400559DA
S11306B0CB170000EB170000B4FEFF1F10B5141C8D
S11306C000290CD00138012809D8064B1A78002AD1
S11306D005D05868221C9B689847201C01E0012023
S11306E0404210BDDCFEFF1F10B5141C002809D1C8
S11306F0064B1A78002A05D05868221CDB689847F4
S1130700201C01E00120404210BDC046DCFEFF1F5A
S113071038B500F013FBFA2500F024FB00F006FCCA
S11307201149002000F06EFD6D001048852464001E
S113073001F0BAFC281C00F0E7FB201C00F0B6FD19
S1130740281C00F0E1FB201C00F0B0FD281C00F088
S1130750DBFB201C00F0AAFD281C00F0D5FB201CAC
S113076000F0A4FD38BDC04600FEFF1FE42F0000CA
S113077037B5002000F062FC0E4AC0239B001360D2
S11307800D4A0E4C13600E4A002513600D4B281CB5
S11307900D4925716571A571236001F0DFF8281CEE
S11307A0211C01AA01F032F90199084801F07CFCEE
S11307B037BDC0461890145420901454ECFEFF1F0B
S11307C02490145450C3000014FFFF1F0A3000008B
S11307D013B5041C0C2000F04DFD084A01231470CD
S11307E00093FA239B0000200193011C044B01F0A9
S11307F079F90C2000F022FD13BDC04644FFFF1F11
S1130800F4FEFF1F10B5FA246400022000F016FD68
S1130810201C00F079FB022000F02CFD201C00F0CD
S113082073FB022000F00AFD201C00F06DFBAE20DB
S1130830FFF7CEFFA020FFF7CBFF7220FFF7C8FF22
S1130840A120FFF7C5FF0020FFF7C2FFA220FFF79A
S1130850BFFF0020FFF7BCFFA420FFF7B9FFA820CB
S1130860FFF7B6FF3F20FFF7B3FFAD20FFF7B0FF60
S11308708E20FFF7ADFFB020FFF7AAFF0B20FFF794
S1130880A7FFB120FFF7A4FF3120FFF7A1FFB3209A
S1130890FFF79EFFF020FFF79BFF8A20FFF798FFEA
S11308A06420FFF795FF8B20FFF792FF7820FFF776
S11308B08FFF8A20FFF78CFF6420FFF789FFBB209E
S11308C0FFF786FF3A20FFF783FFBE20FFF780FF84
S11308D03E20FFF77DFF8720FFF77AFF0620FFF712
S11308E077FF8120FFF774FF9120FFF771FF8220CB
S11308F0FFF76EFF5020FFF76BFF8320FFF768FFC1
S11309007D20FFF765FFAF20FFF762FF10BD08B53C
S11309102620FFF75DFF0120FFF75AFF2220FFF793
S113092057FF0020FFF754FF0020FFF751FF5F201F
S1130930FFF74EFF3F20FFF74BFF0020FFF748FF74
S11309400020FFF745FF0020FFF742FF0020FFF7DC
S11309503FFF0020FFF73CFF0020FFF739FF08BDF1
S1130960F8B5071C21200D1C161C1C1CFFF730FFBA
S1130970381CFFF72DFF301CFFF72AFF281CFFF758
S113098027FF201CFFF724FFFF20FFF721FFFF2094
S1130990FFF71EFFFF20FFF71BFFF8BD38B5182433
S11309A04C43E4B2E51C1334EDB2E4B2092800D997
S11309B0C3E0FFF7B1FD058A153041516D848FAA5C
S11309C0281C291C0F222F23FFF7CAFF2F22281CC3
S11309D0211C131CFFF7C4FF201C211C2F2250E0F4
S11309E02F22131C281C211CFFF7BAFF201C211CDA
S11309F02F221F23FFF7B4FF1F22131C201C291CC6
S1130A00FFF7AEFF281C291C1F220F23FFF7A8FFA6
S1130A10281C211C3AE02F22131C281C211CFFF740
S1130A209FFF201C211C2F220F23FFF799FF1F2259
S1130A30201C291C131C25E0281C291C2F221F23E1
S1130A40FFF78EFF1F22281C211C131CFFF788FFB1
S1130A50201C291C2F226DE02F22131C201C291C72
S1130A60FFF77EFF281C291C2F221F23FFF778FF86
S1130A701F22281C211C131CFFF772FF201C211CA1
S1130A801F220F23FFF76CFF201C291C0F2251E0AB
S1130A902F22131C201C291CFFF762FF281C291C71
S1130AA02F220F23FFF75CFF0F22131C281C211C8D
S1130AB0FFF756FF201C211C0F221F2320E02F22AA
S1130AC0281C211C131CFFF74BFF201C211C2F2268
S1130AD00F2330E0281C291C0F222F23FFF740FF8F
S1130AE02F22131C281C211CFFF73AFF201C211C59
S1130AF02F220F23FFF734FF0F22201C291C131C65
S1130B00FFF72EFF201C291C13E0201C211C0F22A0
S1130B102F23FFF725FF2F22131C201C291CFFF76E
S1130B201FFF281C291C2F221F23FFF719FF281C35
S1130B30211C1F22131CFFF713FF38BD70B50A21B7
S1130B40041CFFF7F3FC0A21051CFFF7EFFC0A2144
S1130B50061CFFF7EBFC0A21FFF72CFDC8B20021AD
S1130B60FFF71CFF301C0A21FFF724FDC8B2012146
S1130B70FFF714FF281C0A21FFF71CFDC8B202214D
S1130B80FFF70CFF201C0A21FFF714FDC8B2032154
S1130B90FFF704FF70BD000008B5FFF7B9FDFFF7CC
S1130BA0E7FDFFF72FFEFFF7B2FE0248FFF7C6FF8F
S1130BB0FEE7C046B822000008B5002000F092FB12
S1130BC008BD08B5002000F087FE08BD10B5174B1E
S1130BD008229978114202D099780A439A70144BEA
S1130BE08821002249015A501249222008701249D2
S1130BF0802040025850186810490140196010497B
S1130C0010485C582040C024A404204358500E4B84
S1130C1080211A72197601211A7059700B490A70D1
S1130C2099790C221142FBD110BDC04600D0074077
S1130C300070044000E0074044100000FFFFF3FF91
S1130C4004100000FFFFFFF0004006400050064083
S1130C50154B164930B51A1E8A420CD0144C002389
S1130C60A408A34204D098000D5801331550F8E7A6
S1130C70104B9A6001E00F4A93600F4A0F4900231A
S1130C80891A8B4204D0D45C0D48C4540133F8E76C
S1130C900C4A0D490023891A8B4204D0D018002431
S1130CA004700133F8E730BD0000000000000000CC
S1130CB00000000000ED00E0C03A00007C3B0000B2
S1130CC000FEFF1FBCFEFF1FE4FFFF1F002812D021
S1130CD0012814D10A4A80235B001360094A136077
S1130CE0094A1360094A1360094A1360094A1360E8
S1130CF0094A136003E08022084B52001A607047CF
S1130D0000A0145414A0145418A014541CA0145477
S1130D1028A014542CA0145434A014543090145407
S1130D20002805D1034A80239B001360024A136004
S1130D307047C04604A0145408A0145408B50020F9
S1130D4000F064F9012000F061F9054B80221202E1
S1130D5000201A60FFF7BAFF0120FFF7B7FF08BDB4
S1130D60D0FFFF1F08B50020FFF7DAFF054B8022F4
S1130D70D20496211A60002089011122FFF742FC57
S1130D8008BDC04604800C5D08B5031E05D10648A5
S1130D904621064A064B01F067F84170002018709E
S1130DA05860986008BDC0465030000041300000D3
S1130DB0B130000010B5041E05D10A489A210A4A30
S1130DC00A4B01F051F843780120FF2B08D000F0C2
S1130DD06DF963780133DBB2637000F05BF90020D6
S1130DE010BDC0465030000027300000B130000074
S1130DF038B5041C0D1C002806D1A2210748FF3178
S1130E00074A084B01F030F800F050F9E3681D433D
S1130E10E56000F03FF9002038BDC04650300000C6
S1130E2034300000BD3000000A4B00229A641A1CC2
S1130E3040329A631A1C30329A621A1C20329A6128
S1130E401A1C10329A60044A1360044B9B60DB60E6
S1130E507047C04678FFFF1F64FFFF1F68FFFF1F36
S1130E60024B00221A60186880B270470C007C5054
S1130E7070B5041C0E1C002805D120486321204AAB
S1130E80204B00F0F1FF4378002B0AD000F00EF95C
S1130E9063780025013BDBB26370257000F0FAF83B
S1130EA029E00225002926D00378002B16D0FFF76D
S1130EB0D7FF6368A268984201D3C31A03E0802174
S1130EC0C31A49025B1803259A4214D200F0EEF8C3
S1130ED00023237000F0DEF802250CE003254B1CF0
S1130EE009D000F0E3F80123237000F0D3F8FFF7F2
S1130EF0B7FFA6606060281C70BDC046503000007B
S1130F00DB300000B130000038B5051CFFF7A8FF46
S1130F10041CFFF7A5FF031BA04203D28022001B81
S1130F20520283189D42F4D238BD000010B5FFF779
S1130F307BFF094A012313600849094A0020094C30
S1130F401060086004212160074C216007490B6090
S1130F5007490860136010BD3880045000008450B5
S1130F6000000450000004510400045104000C501B
S1130F70000004531F2303408021DA05490511436F
S1130F804209044892001218081C104301229A4096
S1130F90026070472880044008B5054800F070FCE2
S1130FA0044B1968C9B20131FFF7C0FA08BDC04645
S1130FB0004006404480145808B5054B186800F0FA
S1130FC083FC0023984201D0024B1B68181C08BD07
S1130FD098380000D0FFFF1F08B5094B1B68DBB22F
S1130FE0022B06D0032B07D00020012B07D1054884
S1130FF005E0FFF7E1FF02E0034800F02BFC08BD29
S113100004800C5D006CDC020040064008B5012839
S113101006D9F0210548FF31054A064B00F024FFAC
S1131020054B185CFFF7A6FF08BDC046033100005E
S1131030D8320000803100000131000008B50028DA
S113104005D005480549064A064B00F00DFF7620F9
S1131050FFF790FF08BDC046033100004F020000B7
S1131060E8300000F231000008B5002805D005483A
S11310700549064A064B00F0F7FE9420FFF77AFF75
S113108008BDC04603310000AF020000F232000088
S113109062320000044A1368002B04D0013B136041
S11310A0002B00D162B67047C8FFFF1F72B6024B17
S11310B01A6801321A607047C8FFFF1F0368F7B54A
S11310C01D0AFF263540264A1E40AB009F58254A7C
S11310D0041C9A58281C0192FFF798FF0022381C20
S11310E0311C00F0E5FD22791F2E04D91E489A21F7
S11310F01E4A1F4B24E0019BB6009E1984235B0506
S1131100334352001A60802362795B0533431A60CB
S1131110A27990235B05334312011A60E379154ADF
S113112016431A043260002B18D0134B5B5D002B5E
S113113014D05BB2002B05DA1048114A114B5D2123
S113114000F092FE1F2B04DD0C485E210C4A0E4B6E
S1131150F6E701229A40131C0C4A1360F7BDC046FF
S11311602C3900002439000024330000233500000A
S1131170DA2F00000000181834390000AC330000E6
S113118069350000403400004F34000000E100E005
S1131190F8B50368041CFF25180A2840144A1D40AA
S11311A083009E58134A9F58FFF730FF301C291CB8
S11311B0012200F07DFD6268301C291C00F098FDBE
S11311C0227A1F2D05D90C48AD210C4A0C4B00F096
S11311D04BFEAD0088237D195B052B4392001A60FA
S11311E098235B051D43637A9B012B60F8BDC046C1
S11311F02C39000024390000243300003735000066
S1131200DA2F000038B50C1C002802D1002C09D1BB
S113121012E003680133F9D0051C0835FFF74EFFCF
S1131220281CF6E72368013306D0251C201C0C3546
S1131230FFF7AEFF2C1CF5E738BD0000010A08B526
S1131240FF231940074A89008A5818401F2805D9E6
S11312500548B321054A064B00F006FE01238340EE
S1131260536008BD2C3900007A3400000E330000AE
S113127002350000010A08B5FF231940074A890016
S11312808A5818401F2805D90548BF21054A064B2E
S113129000F0EAFD01238340936008BD2C3900006F
S11312A07A3400000B35000002350000010A08B54D
S11312B0FF231940074A89008A5818401F2805D976
S11312C00548CB21054A064B00F0CEFD012383409F
S11312D0D36008BD2C3900007A340000503500007A
S11312E00235000007B5002805D00C483C210C4A03
S11312F00C4B00F0B9FD0C4B1B681A1C0193942392
S113130002325B0513431B78DBB2002B02D000F0E2
S11313104BF802E0181C00F0ADF807BD7B35000067
S113132007360000E63500001C360000021C80234E
S11313300C325B0513431B78002BF7D00171704707
S113134010B5002806D0E52112484900124A134B73
S113135000F08AFD124B1868124B1C68E37C002BCA
S113136005D0237C052B02D0237C042B09D19823A0
S1131370821C5B05134300221A7000F0D1FC012388
S11313806374A37C002B03D0201C1830FFF712FDDC
S113139010BDC0465236000020360000E63500007D
S11313A01C360000CCFFFF1F70B5002806D0AE210C
S11313B027484900274A284B00F056FD274B1D6853
S11313C08423EA1C5B05134302221A70244B1C6815
S11313D0AB18902252051A431278E978D2B28E06DD
S11313E035D5942149051943097800292FD0012ABC
S11313F015D1EB78134202D0052323740CE0E06886
S11314000138E060002807D0A368281C5A1CA26099
S11314105978FFF78BFF1AE0FFF792FF17E0626835
S1131420013A6260002A07D08C214905012A07D1BC
S11314300B4308221A7005E0101CFFF781FF01E03E
S11314400B43187023685A1C22602A791A7070BDE5
S11314505236000039360000E63500001C36000024
S1131460CCFFFF1FC31C84204005184302230370D4
S113147070470000F0B5071C89B0002805D08F48DC
S11314808F49904A904B00F0EFFC904B90211D68DF
S11314904905EB780A1CDBB20693AB1DE81C1A4322
S11314A0EE7805901078F6B2C0B2844694204005D8
S11314B01843007807969826441EA0417605C0B2CA
S11314C0334303901878824CC0B20090A81C01905A
S11314D0084301782468C9B2049103990290002951
S11314E030D0604600280CD010231370281CFFF75E
S11314F0B9FF236B002B00D1DEE0626B381C0121A5
S1131500D6E0009900291DD040221A70281CFFF74C
S1131510A9FF231C2C331B78002B02D1019A1643FC
S11315203370236B002B03D000208021626B98471B
S1131530E37D002B04D0201C18308021FFF758FCD9
S11315400A23B8E0079B281C9E11FFF78BFF06981F
S1131550012703113E403B4219D0902305995B05B6
S11315600B4310221A70002E04D0E8784007C00FF5
S113157010D11AE0082323702C342378002B00D0D8
S11315809AE09822019852050243137094E0002EC9
S113159015D0EAE7029910230B70236B002B69D056
S11315A000200221626B984764E0029A1070236B5A
S11315B0002B02D0626B042198472B797CE0049BBA
S11315C0012B27D1EB780498034253D002990E7073
S11315D02B79231C2C331B78002B07D1039A002A68
S11315E004D1982301985B0503431A70236B002BE5
S11315F003D000200821626B9847A37D002B04D000
S1131600201C18300821FFF7F3FB00236360E3601C
S1131610237551E02B79A268DBB2002A28D0216916
S11316200B70236901332361A368013BA360A368A2
S1131630002B41D1039A002A11D1231C2C331B788F
S1131640002B04D1982301985B0503431A70E37DB2
S1131650002B04D0201C18302021FFF7C9FB236B7A
S1131660002060752061834226D0626B20211FE038
S1131670072320E06368002B1CD0E1680B78291C49
S113168080220C3152050A431278002AF7D02B71BC
S1131690E3680133E3606368013B636060680028CA
S11316A00AD1236BE0602075002B05D0626B1021FA
S11316B0984701E00623237009B0F0BDEF3600001F
S11316C033020000D7360000E63500001C36000067
S11316D0CCFFFF1FF0B50F1C87B091000390381C9E
S11316E0141CFEF723FF82B29100381C0492FEF70B
S11316F01DFF251AA04200D9051B0526331C634390
S11317000422029301920299381CFEF70FFF81B262
S113171005907143381CFEF709FF231AA04200D933
S1131720031BAB4204D8059A1D1C92B20492019685
S1131730029B01361B190293212EE4D1201C642143
S1131740FEF7F4FE0323434301209D4219D2019B7B
S1131750043B032B06D8039AC4235B05134380225E
S113176092021A60039AE1235B051343019A002055
S1131770013A12061A60039A83235B051343049A01
S11317801A6007B0F0BDF42310B55B05022903D13C
S1131790184380239B0508E0041C9022083452055A
S11317A022430901184311600023036010BD842300
S11317B008304A085B05034352001A6080235B0526
S11317C01843012319400160704710B58A189142EB
S11317D00AD0DC23041D5B0523431B68002BF8D0CF
S11317E00B780131C360F2E710BD30B5031C8A18D1
S11317F00020914214D0D4241D1D64052C43246878
S1131800002CF8D0DC680C70CC2464052C432568CB
S1131810002D03D08020000320600D200131E8E773
S113182030BD000084235B0503431A7800239A42E9
S113183009D080235B05013018430378012B01D1C3
S1131840024B00E0024B181C7047C04600127A009D
S113185080841E0038B5084A031C083313431D78DE
S1131860064A031C183313431C78FFF7DBFFEDB261
S1131870E4B22C19E04038BD0000901000001010B4
S113188010B50D4A831D13431B78041CDBB2002BD7
S11318900FD0012B07D1FFF7C5FF084B08341C43B9
S11318A02378D84006E00020022B03D1044B1868AB
S11318B000E0044810BDC04600000811000090106C
S11318C0D0FFFF1F006CDC029C235B0518430078EB
S11318D0431E9841C0B2704707B5002805D00C4894
S11318E03A210C4A0C4B00F0BFFA0C4B1B681A1C33
S11318F00193902303325B0513431B78DBB2002B67
S113190002D000F01BF902E0181C00F081F907BDB9
S1131910703700005D370000DB37000094380000AA
S11319200C4A08B580000C4B8158C3589C200331E5
S11319304005002208431A710270942040050143B7
S11319400A701A7F002A03D0181C2030FFF732FADD
S113195008BDC04694380000D4FFFF1F234BF7B5E1
S113196030220C1C061C8700081C0021FD5800F0C6
S1131970F7FA301CFFF762FBFFF70EFB2060281C10
S113198000F0FCF9201C00212030FFF7FDF9902322
S1131990EA1C5B051343019210221A70281C0321D0
S11319A000F02CFA281C002100F04EFA104BFC50D9
S11319B0104B9B57002B04DA0F485D210F4A104B44
S11319C005E01F2B05DD0C480C4A0E4B5E2100F090
S11319D04BFA01229A40131C0B4A1360019A982374
S11319E05B05134340221A70F7BDC04694380000CB
S11319F0D4FFFF1F92380000AC3300008038000091
S1131A00403400004F34000000E100E070B50C1CCD
S1131A10161C002905D10C48A7210C4A0C4B00F0D8
S1131A2023FA0C4B8000C5580B4B0968C358281C7B
S1131A301A6800F0AAF930602179281C6279A37928
S1131A4000F0EFF970BDC04617380000FC37000005
S1131A50C236000094380000D4FFFF1FF7B51F4AB8
S1131A6083009C581E4A061C9D5822790420002A93
S1131A7033D1002903D0301C01AAFFF7C7FF9821F6
S1131A80EA1C49051143002340200B7008702769A4
S1131A909F4203D1301CFFF743FF1DE00121217158
S1131AA0A36194235B052B4319780720002914D0E4
S1131AB0A368002B03D019780133A36000E0191C3C
S1131AC0A9712369013B2361A3690133A3619C23A9
S1131AD05B051A43802313700020FEBDD4FFFF1F53
S1131AE094380000F8B5134C8600134F3459069D02
S1131AF0F65901272777A2602561E3606561FFF746
S1131B00ADFF051E14D1201C20300799FFF7B0F952
S1131B100328F8D000280BD09C220336520500235A
S1131B2032432371137094225205164333700325F4
S1131B30281CF8BDD4FFFF1F9438000010B51F4BBC
S1131B408200D3581E4952581979002934D0596952
S1131B50002911D09C2149051143097800290BD093
S1131B609479D968E4B2002903D00C70D9680131A2
S1131B70D9605969013959611969002914D094212E
S1131B8049051143097800290ED09968002903D02A
S1131B900C780131996000E00C1C94711A69013AC7
S1131BA01A619A6901329A611A69002A04D15B693F
S1131BB0002B01D1FFF7B4FE10BDC046D4FFFF1FB8
S1131BC09438000008B5104B8000C3580F4A815860
S1131BD00022581CC2779C20033140050843DA6276
S1131BE01A701A835A629A621A630270942040052A
S1131BF001430A701A1C38321278002A03D0181DC7
S1131C000121FFF7F5F808BDD4FFFF1F9438000049
S1131C1038B5254B8200D35824495258591CC97FE2
S1131C2000293FD0D96A002916DB942149051143C4
S1131C300978002910D0596A1C7F002905D0DD6A73
S1131C40002D02DD0C78013159629471D96A013991
S1131C50D962596B01315963D96A002905DA942193
S1131C60D41C4905214300240C70196B002911DD93
S1131C709C2149051143097800290BD091799A6A6E
S1131C80C9B2002A03D011709A6A01329A621A6B9F
S1131C90013A1A63DA6A002A04DC1B6B002B01DCAC
S1131CA0FFF790FF38BDC046D4FFFF1F94380000F3
S1131CB008B51F2905D90B482C210B4A0B4B00F002
S1131CC0D3F814308023012A04D11B058A40184319
S1131CD0111C04E0DB04184301238B40D943016049
S1131CE008BDC0469C380000F938000002350000E9
S1131CF008B51F2905D907484021074A074B00F0BA
S1131D00B3F801238B40002A01D0436000E08360D4
S1131D1008BDC0469C3800000C39000002350000A4
S1131D2010B59422831C52051A431478011C022016
S1131D30012C1CD11278012A06D004210C48FF3151
S1131D400C4A0D4B00F090F88022D2041343CF22AA
S1131D501A708023DB00C8782022024004D0013BA3
S1131D60002B03D0C046F6E7101C00E0092010BD8C
S1131D7036390000AE390000913900000423C370E5
S1131D8000238370437003717047F0B589B00692E5
S1131D90120B0392012608230722079005910025C0
S1131DA0764202930192022700246B1C191C79438A
S1131DB006980493FEF7BAFB059A824206D3131AD7
S1131DC09E4203D91E1C03900294019501347F00A6
S1131DD0092C01D0002EE8D1072D03D0002E01D00C
S1131DE0049DE0E7019B03981A0170231340029AB3
S1131DF01343079ADBB2537009B0F0BD8423C21CAD
S1131E005B05134301220A405200D2B289071A70BB
S1131E10C90F90235B05023009011843C9B2017050
S1131E20704710B58C2403306405C9000443C9B25B
S1131E3021708821490592000143D2B20A708022A0
S1131E4052051043037010BD802302305B0501224C
S1131E5003430A4089071A70C90F8C235B05C90024
S1131E601843C9B2017070477FB5061C0948006861
S1131E70C068002A02D0151C074C01E0074C251C41
S1131E801A1C0091331C06490194029500F026F8AF
S1131E9000F046FDB4FEFF1FBF390000093000000A
S1131EA0CC390000014B18687047C046B4FEFF1FD0
S1131EB0084B10B5041C002B02D0002100E000BF29
S1131EC0054B1868836A002B00D09847201C01F04A
S1131ED03BF8C04600000000003A00000EB403B511
S1131EE003AB04CB054A011C1068039A019300F06C
S1131EF0BBF902B008BC03B01847C046B4FEFF1FCC
S1131F0070B50E4B0E4D0024ED1AAD101E1CAC42E4
S1131F1004D0A300F35898470134F8E701F0BCFD5E
S1131F20084B094D0024ED1AAD101E1CAC4204D020
S1131F30A300F35898470134F8E770BDB83A00009D
S1131F40B83A0000B83A0000BC3A000008B5034BA8
S1131F50011C186800F054F808BDC046B4FEFF1F09
S1131F60031C8218934202D019700133FAE77047B8
S1131F7030B5002940D004390B68002B00DAC918A9
S1131F801E4A1368141C002B02D14B60116033E00D
S1131F9099420FD208680A189A4205D11368526808
S1131FA0C01808604A6000E04B60216024E08A4267
S1131FB003D8131C5A68002AF9D11D685C198C4295
S1131FC00BD10968691858181960904214D1146823
S1131FD05268091919605A600EE08C4202D90C2328
S1131FE0036009E008680C18944203D1146852682D
S1131FF0001908604A60596030BDC046DCFFFF1F0D
S113200070B50323CD1C9D430835061C0C2D01D24D
S11320100C2501E0002D3FDB8D423DD3204B1C6895
S11320201A1C211C002913D00868431B0DD40B2B48
S113203002D90B60CC181EE08C4202D16368136095
S11320401AE0486860600C1C16E00C1C4968E9E75B
S1132050144C2068002803D1301C00F03FF82060A5
S1132060301C291C00F03AF8431C15D0C41C03236F
S11320709C4384420AD12560201C0B300722231D77
S11320809043C31A0BD05A42E25008E0211A301C84
S113209000F024F80130EED10C233360002070BD31
S11320A0DCFFFF1FD8FFFF1F0FB40B4B13B51C68D9
S11320B0002C05D0A369002B02D1201C00F040FDA8
S11320C005ABA168201C049A019300F0CDF816BC5E
S11320D008BC04B01847C046B4FEFF1F38B5074C0F
S11320E00023051C081C2360FEF770FA431C03D16F
S11320F02368002B00D02B6038BDC046E0FFFF1FD3
S1132100F7B51E1C3C4B041C1D680F1C0192002DCE
S113211005D0AA69002A02D1281C00F011FD374B12
S11321209C4201D16C6808E0354B9C4201D1AC68FB
S113213003E0344B9C4200D1EC68019B022B57D83E
S1132140002E55DB281C211C00F07AFC0023636060
S1132150A361A3891A0603D5281C2169FFF708FF88
S1132160A38983229343A381019B022B13D0002FC5
S113217025D1002E01D18026F600301CFFF7E6FEA3
S1132180071E18D18020C000FFF7E0FE071E10D103
S11321900120404200E00020A38902221343A381CE
S11321A00023A360231C473323602361012363615D
S11321B020E08026F600A38980221343A381019A9C
S11321C0012A04D1A3891343A3817342A3610E4B53
S11321D00020AB62A3892760276166611A0709D5CD
S11321E0032213405A4253415B421E40A66001E061
S11321F001204042FEBDC046B4FEFF1F383A000035
S1132200583A0000783A0000992A00000023C25C82
S11322100133002AFBD1581E7047936810B5013B67
S11322209360002B05DA9469A34208DBCBB20A2B36
S113223005D01368581C10601970C8B201E000F092
S1132240A5FA10BDF8B5061C0F1C141CD518AC4219
S113225008D02178301C3A1CFFF7DFFF0134431CFF
S1132260F5D100E00020F8BDF0B59FB0061C0F1CAE
S113227003920593002804D08169002901D100F05C
S11322805FFC754B9F4201D1776808E0734B9F4216
S113229001D1B76803E0724B9F4200D1F768BB8954
S11322A01A070AD53B69002B07D006AD00236B61E2
S11322B020236B763023AB763BE0301C391C00F0D6
S11322C0BDFA0028F1D001204042C2E0059A111D58
S11322D012680591002A76DB0992013423782E2BAB
S11322E000D181E021785F48032200F0E9FC002856
S11322F007D05C492A68431A40209840104328605C
S113230001342178631C584806220393297600F08F
S1132310D7FC002800D18AE0544B002B7ED1059BCA
S1132320072207339343083305936A6904995318C2
S11323306B61039C2378002B04D10399611A0291E9
S113234010D003E0252BF8D00134F3E7301C391CFE
S1132350039A029BFFF776FF013075D06A690299F0
S113236053186B612378002B6ED0012252426A60AD
S11323706A4600235B3201342B60EB60AB60137060
S1132380AB6521783A48052200F09AFC002808D071
S1132390374A0134831A012098402B681843286077
S11323A0EFE72B68D90603D56A4620215B3211700A
S11323B01A0703D56A462B215B32117022782A2A28
S11323C084D0099B05E05242EA60022213432B6049
S11323D083E72278303A092A04D80A214B4301348E
S11323E09B18F6E7099379E763782A2B09D1059BB3
S11323F002341A1D1B680592002B0DDA01235B427F
S11324000AE0013400232278303A092A04D80A2148
S11324104B4301349B18F6E7079363E705AB00933E
S1132420301C291C3A1C134B00E000BF07E005AB2D
S11324300093301C291C3A1C0E4B00F091F80490B8
S11324400499013100D070E7BB895A0600D53AE7F8
S11324500B981FB0F0BDC046383A0000583A00004F
S1132460783A00000A3A00000E3A0000000000002A
S1132470043A000045220000F7B5151C01930A69CF
S11324808B68061C0C1C934200DA131C221C2B6064
S113249043321278002A01D001332B602068800671
S11324A002D52B6802332B60216806270F401FD00A
S11324B0231C43331B785A1E9341226892061FD56E
S11324C0E11840313020C870211C5A1C453109786C
S11324D0A21840320233D17012E0221C301C019940
S11324E019320123089FB847013011D0009F0137EA
S11324F00097E0682968009F431A9F42EDDBD7E705
S1132500221C301C01994332089FB847013002D184
S11325100120404223E0206806212B68E268014044
S11325200025042903D1D51AEB43DB171D40A2680B
S113253023699A4201DDD31AED1800270097009F02
S1132540AF420BDA221C301C01991A320123089F76
S1132550B8470130DCD0009F0137EFE70020FEBD13
S1132560F0B50D1C8BB04335069205900793049586
S11325700B7E0C1C109A6E2B00D1A7E011D8632B94
S113258022D009D8002B00D1B0E0582B00D0C0E0F5
S113259045310B707B4D4EE0642B1CD0692B1AD057
S11325A0B7E0732B00D1A5E009D86F2B29D0702B8D
S11325B000D0AEE00E68202333430B6036E0752B69
S11325C01FD0782B32D0A4E013680D1C191D42359E
S11325D011601B689FE0216813680E0603D5191D5E
S11325E011601E6805E04806F9D5191D1160002127
S11325F05E5E644B002E3BDA049D2D2276422A70E7
S113260036E0216813680E0603D5191D11601E6893
S113261004E04806F9D5191D1E881160594B227E25
S1132620039308276F2A1ED00A271CE0231C782155
S11326304533554D197011682368081D03951060C2
S11326401E0601D50E6802E05806FBD50E88D90790
S113265002D52022134323601027002E03D12268C1
S113266020239A432260231C002243331A7001E082
S113267003930A276368A360002B03DB2568042205
S113268095432560002E02D1049D002B0ED0049D9D
S1132690301C391CFDF78EFF0398013D435C301C50
S11326A02B70391CFDF742FF061EF1D1082F09D10A
S11326B02168C90706D5626823699A4202DC013D94
S11326C030232B70049E731B23612AE0086813686F
S11326D04969050604D5181D10601B68196005E0DA
S11326E04606F8D5181D10601B6819800023236165
S11326F0049D16E01368191D11601D68281CFFF75E
S113270085FD63682061984200D923612069606077
S113271004E0251C42352B7001232361049E002311
S11327203370079E05980096211C09AA069BFFF7A3
S1132730A3FE013002D10120404221E02A1C059869
S113274006992369079DA8470130F4D02668B60787
S113275005D4099BE068984212DA181C10E00025A1
S1132760E0680999431A9D42F3DA221C05980699F8
S113277019320123079EB0470130DCD00135EFE761
S11327800BB0F0BD153A0000263A000070B5051CE8
S11327900E1C141C002804D08269002A01D100F008
S11327A0CFF9234B9C4201D16C6808E0214B9C4239
S11327B001D1AC6803E0204B9C4200D1EC68A369D2
S11327C0A360A3891A070AD52369002B07D02268BE
S11327D02369F6B2D01A626990420FDB08E0281C24
S11327E0211C00F02BF80028F1D0012040421DE00C
S11327F0281C211C00F024F90028F6D1A36801301C
S1132800013BA36023685A1C22601E7063699842CE
S113281005D0A389301CDA0708D50A2E06D1281C56
S1132820211C00F00DF90028DFD1301C70BDC0461A
S1132830383A0000583A0000783A0000344B70B53A
S11328401D68061C0C1C002D05D0A969002902D1A5
S1132850281C00F075F92F4B9C4201D16C6808E0EC
S11328602D4B9C4201D1AC6803E02C4B9C4200D11F
S1132870EC68A28993B2190721D4D90605D4092397
S1132880336040231A43A2813FE05A0713D5616B9A
S1132890002908D0231C4433994202D0301CFFF78E
S11328A067FB00236363A38924229343A38100234A
S11328B0636023692360A38908221343A3812169E8
S11328C000290BD1A389A02292001A4080239B00E7
S11328D09A4203D0301C211C00F0A2F9A3890122E2
S11328E01A4005D061690022A2604A42A26103E055
S11328F0990700D46269A26022690020824206D14D
S1132900190604D540221343A3810120404270BD1F
S1132910B4FEFF1F383A0000583A0000783A00002D
S113292008B5062000F002FA012000F00DFBF7B50F
S11329308B89051C0C1C19075ED46268002A02DC12
S1132940276C002F1ADDE76A002F17D000222E68AB
S11329502A60802252011A4001D0626D15E0281CC1
S1132960216A0123B847021C411C0ED12B68002B9D
S11329700BD01D2B01D0162B02D12E6000205EE05F
S1132980A38940210B43A38159E0A3895F0706D59E
S11329906168636B521A002B01D0276CD21B281C70
S11329A0216A0023E76AB847A289411C06D12B6833
S11329B0002B03D01D2B01D0162B19D100236360EB
S11329C023692360D70405D5411C02D12A68002A53
S11329D000D16065616B2E600029CFD0231C443385
S11329E0994202D0281CFFF7C3FA0020606326E056
S11329F040231A43A28122E02669002EBED0276814
S1132A000022BF1B01972660990700D16269A2606A
S1132A10019F002FB2DD281C216A321C019BA76A8A
S1132A20B847002806DCA389402213430120A38170
S1132A30404204E0019F36183F1A0197E8E7FEBDC3
S1132A400A6938B5051C0C1C002A01D100201CE0C1
S1132A50002804D08369002B01D100F071F80B4BDE
S1132A609C4201D16C6808E0094B9C4201D1AC68DE
S1132A7003E0084B9C4200D1EC680C22A35E002BBF
S1132A80E4D0281C211CFFF752FF38BD383A00005F
S1132A90583A0000783A0000F8B5041C071C483482
S1132AA0002C12D0A5686668013E0CD4AB89012BBA
S1132AB007D90E22AB5E013303D0381C291CFFF763
S1132AC0BFFF6835F0E72468EAE7F8BD002310B5D6
S1132AD0041C03604360836081814366C281036197
S1132AE043618361191C08225C30FFF739FA054BF6
S1132AF024626362044BA362044BE362044B2363CA
S1132B0010BDC0466D2D0000952D0000CD2D000098
S1132B10F92D000070B54B1E68255D430E1C291C61
S1132B207431FFF76DFA041E08D00021016046607D
S1132B302A1C0C30A0606832FFF712FA201C70BD0A
S1132B40836913B5041C002B27D18364C364036514
S1132B50124B134A1B688262984201D1012383619C
S1132B60201C00F01FF86060201C00F01BF8A0601F
S1132B70201C00F017F80421E06000226068FFF7D1
S1132B80A5FFA06809210122FFF7A0FFE068122138
S1132B900222FFF79BFF0123A36113BD003A00004B
S1132BA0992A0000F8B51D4B071C1E68B269002A5B
S1132BB002D1301CFFF7C4FF4836B4687368013B88
S1132BC005D40C22A55E002D10D06834F7E73368D5
S1132BD0002B06D1381C0421FFF79CFF306000282D
S1132BE001D03668E9E70C233B6016E001235B4221
S1132BF0E381201C0123A38165662560A5606560CF
S1132C0025616561A5615C30291C0822FFF7A8F9DC
S1132C106563A563A564E564201CF8BD003A000063
S1132C20F0B58B8991B0051C0C1C9A0725D40E2392
S1132C30C95E002906DAA78980231F400FD0002728
S1132C4040260EE001AA00F003F90028F3DB029B02
S1132C50F0273F02184A1F40BF187B425F4180267D
S1132C60F600281C311CFFF7CBF900280CD1A389EE
S1132C709A051FD402221343A381231C47332360E4
S1132C8023610123636115E00C4B8022AB62A389AD
S1132C9020601343A38120616661002F0AD00E23B4
S1132CA0E15E281C00F0E6F8002803D0A389012285
S1132CB01343A38111B0F0BD00E0FFFF992A000087
S1132CC0C9B28218904204D003788B4202D00130FA
S1132CD0F8E70020704738B5041C0D1E1F2D04D9D9
S1132CE016230360012040421FE0436C002B04D0F4
S1132CF08A009A181368002B08D1201C00F032F8BF
S1132D002A1C011C201C00F01BF80EE0012B0BD028
S1132D10591C03D116230360012006E00024281C5B
S1132D2014609847201C00E0002038BD08B5034B10
S1132D30011C1868FFF7CFFF08BDC046B4FEFF1F93
S1132D4038B5074C0023051C081C111C236000F037
S1132D50EBF8431C03D12368002B00D02B6038BD53
S1132D60E0FFFF1F08B500F0CFF808BD38B50C1C14
S1132D700E25495F00F0A4F8002803DB626D1318E8
S1132D80636503E0A289024B1340A38138BDC046AA
S1132D90FFEFFFFFF8B51E1C8B89051C0C1C171CCC
S1132DA0DA0505D50E23C95E0022022300F074F86B
S1132DB0A289054B281C1340A3810E22A15E331C5B
S1132DC03A1C00F01FF8F8BDFFEFFFFF38B50C1CEC
S1132DD00E25495F00F060F8A389421C03D1054A1F
S1132DE01340A38104E0802252011343A381606550
S1132DF038BDC046FFEFFFFF08B50E23C95E00F0E3
S1132E0015F808BD38B5084C051C00202060081CC6
S1132E10111C1A1CFDF752FC431C03D12368002B20
S1132E2000D02B6038BDC046E0FFFF1F38B5074C0B
S1132E300023051C081C236000F056F8431C03D132
S1132E402368002B00D02B6038BDC046E0FFFF1F75
S1132E5038B5074C0023051C081C111C236000F026
S1132E604BF8431C03D12368002B00D02B6038BDE2
S1132E70E0FFFF1F38B5074C0023051C081C236026
S1132E8000F04AF8431C03D12368002B00D02B60C8
S1132E9038BDC046E0FFFF1F38B5084C051C0020B4
S1132EA02060081C111C1A1C00F046F8431C03D1B6
S1132EB02368002B00D02B6038BDC046E0FFFF1F05
S1132EC038B5084C051C00202060081C111C1A1C75
S1132ED0FDF70AFC431C03D12368002B00D02B60B0
S1132EE038BDC046E0FFFF1F024B5822012040427C
S1132EF01A607047E0FFFF1F024B58220120404236
S1132F001A607047E0FFFF1F024B58220120404225
S1132F101A607047E0FFFF1F024B582200201A601E
S1132F207047C046E0FFFF1F024B58220120404279
S1132F301A607047E0FFFF1F024B582201204042F5
S1132F401A607047E0FFFF1FFEE7C0462F686F6DF1
S1132F50652F6D697436733139346961702F446536
S1132F60736B746F702F7465616368696E672D632A
S1132F707565642D346232352F4B53444B5F312ECB
S1132F80312E302F64656D6F732F6932635F636F09
S1132F906D6D2F6D61737465722F61726D676363FC
S1132FA02F6672646D6B6C30337A2F2E2E2F2E2E7B
S1132FB02F2E2E2F2E2E2F2E2E2F706C6174666FB7
S1132FC0726D2F68616C2F696E632F66736C5F700E
S1132FD06F72745F68616C2E680070696E203C20AB
S1132FE0333255000D0A3D3D3D3D3D3D204F4C459E
S1132FF04420544553542050524F4752414D203D94
S11330003D3D3D3D3D0D0A0D0A0043616C63756C09
S113301061746564206261756420726174652069FD
S11330207320256C640A004F53415F53656D6150F2
S11330306F7374004F53415F4576656E74536574C6
S1133040004F53415F53656D614372656174650060
S11330502F686F6D652F6D6974367331393469610A
S1133060702F4465736B746F702F74656163686946
S11330706E672D637565642D346232352F4B53446E
S11330804B5F312E312E302F706C6174666F726D10
S11330902F6F73612F7372632F66736C5F6F735F2F
S11330A06162737472616374696F6E5F626D2E63C3
S11330B0007053656D00704D7574657800704576C9
S11330C0656E740068616E646C6572007175657517
S11330D06500736574466C616773004F53415F53B9
S11330E0656D615761697400434C4F434B5F53599D
S11330F0535F456E61626C65537069436C6F636BBB
S113310000898A2F686F6D652F6D69743673313944
S1133110346961702F4465736B746F702F746561CB
S11331206368696E672D637565642D346232352F6B
S11331304B53444B5F312E312E302F706C617466CB
S11331406F726D2F73797374656D2F7372632F6350
S11331506C6F636B2F4D4B4C30335A342F66736C4A
S11331605F636C6F636B5F4D4B4C30335A342E632B
S1133170004E554C4C20213D20636F6E66696700FC
S1133180696E7374616E6365203C2073697A656F40
S11331906628706F7274476174655461626C652946
S11331A02F73697A656F6628706F727447617465EE
S11331B05461626C655B305D2900696E7374616E85
S11331C06365203C2073697A656F66286164634790
S11331D06174655461626C65292F73697A656F66E1
S11331E028616463476174655461626C655B305D3A
S11331F02900696E7374616E6365203C2073697A7B
S1133200656F6628737069476174655461626C65A3
S1133210292F73697A656F662873706947617465CD
S11332205461626C655B305D2900696E7374616E14
S11332306365203C2073697A656F66286932634749
S11332406174655461626C65292F73697A656F6670
S113325028693263476174655461626C655B305DF3
S11332602900696E7374616E6365203C2073697A0A
S1133270656F66286C70756172744761746554611A
S1133280626C65292F73697A656F66286C70756145
S11332907274476174655461626C655B305D2900CA
S11332A0696E7374616E6365203C2073697A656F1F
S11332B0662874706D476174655461626C65292F6A
S11332C073697A656F662874706D476174655461BB
S11332D0626C655B305D2900434C4F434B5F53592F
S11332E0535F456E61626C65506F7274436C6F63BB
S11332F06B00434C4F434B5F5359535F456E6162C0
S11333006C654C7075617274436C6F636B004750ED
S1133310494F5F48414C5F53657450696E4F7574F3
S1133320707574002F686F6D652F6D697436733115
S113333039346961702F4465736B746F702F7465D1
S1133340616368696E672D637565642D3462323517
S11333502F4B53444B5F312E312E302F6C69622F2B
S11333606B73646B5F706C6174666F726D5F6C69B4
S1133370622F61726D6763632F4B4C30335A342F65
S11333802E2E2F2E2E2F2E2E2F2E2E2F706C61745C
S1133390666F726D2F68616C2F696E632F66736C34
S11333A05F706F72745F68616C2E68002F686F6D58
S11333B0652F6D697436733139346961702F4465D2
S11333C0736B746F702F7465616368696E672D63C6
S11333D07565642D346232352F4B53444B5F312E67
S11333E0312E302F6C69622F6B73646B5F706C616C
S11333F074666F726D5F6C69622F61726D6763636F
S11334002F4B4C30335A342F2E2E2F2E2E2F2E2E60
S11334102F2E2E2F706C6174666F726D2F737973FB
S113342074656D2F696E632F66736C5F696E746566
S113343072727570745F6D616E616765722E68007B
S113344030203C3D206972714E756D626572006971
S113345072714E756D626572203C3D2046534C5F1F
S1133460464541545552455F494E54455252555074
S1133470545F4952515F4D4158002F686F6D652F5D
S11334806D697436733139346961702F4465736BB7
S1133490746F702F7465616368696E672D637565F9
S11334A0642D346232352F4B53444B5F312E312E11
S11334B0302F6C69622F6B73646B5F706C61746620
S11334C06F726D5F6C69622F61726D6763632F4BFE
S11334D04C30335A342F2E2E2F2E2E2F2E2E2F2EAD
S11334E02E2F706C6174666F726D2F68616C2F691A
S11334F06E632F66736C5F6770696F5F68616C2EB3
S1133500680070696E203C203332004750494F5F99
S113351048414C5F436C65617250696E4F757470BD
S1133520757400504F52545F48414C5F536574505A
S1133530756C6C436D6400504F52545F48414C5F4E
S1133540536574536C6577526174654D6F6465009F
S11335504750494F5F48414C5F546F67676C6550F3
S1133560696E4F757470757400494E545F535953A6
S11335705F456E61626C65495251002F686F6D65DD
S11335802F6D697436733139346961702F446573F2
S11335906B746F702F7465616368696E672D6375F2
S11335A065642D346232352F4B53444B5F312E31D9
S11335B02E302F706C6174666F726D2F6472697631
S11335C06572732F7372632F6932632F66736C5F36
S11335D06932635F7368617265645F66756E637494
S11335E0696F6E2E6300696E7374616E6365203C4F
S11335F02048575F4932435F494E5354414E434537
S11336005F434F554E54004932435F4452565F491D
S1133610525148616E646C6572000000006006409F
S11336204932435F4452565F436F6D706C657465F5
S11336305472616E73666572004932435F44525638
S11336405F4D617374657249525148616E646C6573
S113365072002F686F6D652F6D697436733139345C
S11336606961702F4465736B746F702F7465616347
S113367068696E672D637565642D346232352F4B2E
S113368053444B5F312E312E302F706C6174666F52
S1133690726D2F647269766572732F7372632F690A
S11336A032632F66736C5F6932635F6D6173746537
S11336B0725F6472697665722E63006D61737465FE
S11336C072006465766963650074784275666600A5
S11336D0727842756666004932435F4452565F53BE
S11336E06C61766549525148616E646C6572002F55
S11336F0686F6D652F6D6974367331393469617023
S11337002F4465736B746F702F7465616368696EA1
S1133710672D637565642D346232352F4B53444BEA
S11337205F312E312E302F706C6174666F726D2F85
S1133730647269766572732F7372632F6932632FB3
S113374066736C5F6932635F736C6176655F647224
S1133750697665722E6300736C6176650053504917
S11337605F4452565F49525148616E646C65720001
S11337702F686F6D652F6D697436733139346961E3
S1133780702F4465736B746F702F7465616368691F
S11337906E672D637565642D346232352F4B534447
S11337A04B5F312E312E302F706C6174666F726DE9
S11337B02F647269766572732F7372632F737069E5
S11337C02F66736C5F7370695F7368617265645FA1
S11337D066756E6374696F6E2E6300696E737461CF
S11337E06E6365203C2048575F5350495F494E53F0
S11337F054414E43455F434F554E54005350495F27
S11338004452565F4D6173746572436F6E666967A7
S1133810757265427573002F686F6D652F6D6974DD
S113382036733139346961702F4465736B746F700A
S11338302F7465616368696E672D637565642D34E3
S11338406232352F4B53444B5F312E312E302F7063
S11338506C6174666F726D2F647269766572732F12
S11338607372632F7370692F66736C5F7370695F13
S11338706D61737465725F6472697665722E63003C
S1133880494E545F5359535F456E61626C654952AA
S113389051000A0000600740005006402F686F6D19
S11338A0652F6D697436733139346961702F4465DD
S11338B0736B746F702F7465616368696E672D63D1
S11338C07565642D346232352F4B53444B5F312E72
S11338D0312E302F706C6174666F726D2F68616C5D
S11338E02F7372632F6770696F2F66736C5F6770D5
S11338F0696F5F68616C2E63004750494F5F4841B0
S11339004C5F53657450696E446972004750494F67
S11339105F48414C5F577269746550696E4F7574A6
S1133920707574000090044000A0044000F00F4043
S113393040F00F401E1F2F686F6D652F6D69743640
S1133940733139346961702F4465736B746F702FF0
S11339507465616368696E672D637565642D34628F
S113396032352F4B53444B5F312E312E302F706C38
S11339706174666F726D2F68616C2F7372632F6947
S113398032632F66736C5F6932635F68616C2E63A8
S11339900042525F4932435F43315F4D53542862C2
S11339A06173654164647229203D3D2031004932D0
S11339B0435F48414C5F53656E6453746F70002CD1
S11339C02066756E6374696F6E3A20006173736567
S11339D07274696F6E2022257322206661696C659A
S11339E0643A2066696C6520222573222C206C6958
S11339F06E65202564257325730A004300000000CA
S1133A0054FEFF1F232D302B2000686C4C0065668C
S1133A10674546470030313233343536373839411B
S1133A204243444546003031323334353637383931
S1133A30616263646566000000000000000000002D
S1133A400000000000000000000000000000000072
S1133A500000000000000000000000000000000062
S1133A600000000000000000000000000000000052
S1133A700000000000000000000000000000000042
S1133A800000000000000000000000000000000032
S1133A900000000000000000F8B5C046F8BC08BCF7
S1133AA09E467047F8B5C046F8BC08BC9E467047B1
S10B3AB0C0C9FF7F0100000002
S1073AB839040000C9
S1073ABC11040000ED
S1133AC00A01000001000000010000000B010000D9
S1133AD001000000010000000D01000001000000D1
S1133AE0010000000C0000000100000001000000C3
S1133AF00200000001000000010000000D010000B0
S1133B000100000001000000FFFFFFFF00000000B3
S1133B100000000000000000383A0000583A00009D
S1133B20783A0000000000000000000000000000DF
S1133B3000000000FB39000000000000000000004D
S1133B400000000000000000000000000000000071
S1133B500000000000000000000000000000000061
S1133B600000000000000000000000000000000051
S10F3B700000000054FEFF1F00000000D5
S90304E90F
