S02B00002F686F6D652F6D697436733139346961702F4465736B746F702F7465616368696E672D637565642D8C
S113000000060020E90400001105000011050000AD
S113001000000000000000000000000000000000DC
S113002000000000000000000000000011050000B6
S11300300000000000000000110500001105000090
S11300401105000011050000110500001105000054
S11300501105000011050000110500001105000044
S113006035090000110500003F09000011050000DA
S11300701105000011050000110500001105000024
S11300801105000011050000110500001105000014
S11300901105000011050000110500001105000004
S11300A011050000110500001105000011050000F4
S11300B011050000110500001105000011050000E4
S1130400FFFFFFFFFFFFFFFFFFFFFFFFFE3DFFFFBB
S113041010B5064C2378002B07D1054B002B02D0D6
S1130420044800E000BF0123237010BDBCFEFF1F81
S113043000000000303E000008B5084B002B03D03C
S11304400748084900E000BF07480368002B03D0B1
S1130450064B002B00D0984708BDC04600000000A2
S1130460303E0000C0FEFF1FB8FEFF1F000000006A
S1130470164B002B00D1144B9D46402292029A1A2F
S1130480924600218B460F461348144A121A01F073
S11304906AFD0F4B002B00D098470E4B002B00D069
S11304A098470020002104000D000D48002802D0C8
S11304B00C4800E000BF01F01DFD2000290000F001
S11304C01DF901F0EFFCC046000008000006002002
S11304D00000000000000000BCFEFF1F6CFFFF1FB7
S11304E0000000000000000072B606480649074AF2
S11304F002600A6000F028FA00F068FA62B6FFF7BA
S1130500B7FF000080E100E080E200E0FFFFFFFFB2
S11305100048004711050000002934D001230022BF
S113052010B488422CD301242407A14204D281426E
S113053002D209011B01F8E7E400A14204D281427E
S113054002D249005B00F8E7884201D3401A1A43FB
S11305504C08A04202D3001B5C0822438C08A04232
S113056002D3001B9C082243CC08A04202D3001BE8
S1130570DC082243002803D01B0901D00909E3E762
S1130580101C10BC7047002801D00020C04307B4E1
S1130590024802A14018029003BDC04619000000A1
S11305A00029F0D003B5FFF7B9FF0EBC4243891A06
S11305B01847C0467047C04608B50A4B1A68002A57
S11305C001D1094A1A601A6808491018884206D9E4
S11305D001F062FC0C2303600120404201E018603A
S11305E0101C08BDD8FEFF1F70FFFF1F7001002004
S11305F0F7B5254D071C2C7801910320002C42D11E
S1130600FBB22A7000936B700120112A3BD11F4E5C
S1130610381C6E6000F0F4FB381C00F0A9FB019A52
S1130620011C301C01F058F9301C211C01F0ADF9FB
S1130630301C211C01F0BDF9154B80221C60154BA8
S113064012031A60144B8022D2021A60134B211C2D
S1130650AB60134B0222EB60009B6B70114D2B6857
S11306609868231C01F080FD2B68211C5868022225
S1130670231C01F079FD2B68211CD8680222231C5D
S113068001F072FD201CFEBDDCFEFF1F0040054092
S1130690004085560840855908400559CF19000087
S11306A0EF190000B4FEFF1F10B5141C00290CD074
S11306B00138012809D8064B1A78002A05D0586851
S11306C0221C9B689847201C01E00120404210BD79
S11306D0DCFEFF1F10B5141C002809D1064B1A7844
S11306E0002A05D05868221CDB689847201C01E0CA
S11306F00120404210BDC046DCFEFF1FF0B57E4C19
S113070093B0FF23684602220375211C04AD06A89A
S11307102B7001F01FFC07AB211D11C911C300F0A0
S1130720D9F900F0EBF9002000F0B8F900F0CAFAAA
S11307300020724900F032FC09A9002000F072FD8B
S11307406F4801F0B5FCFA20400000F0A9FA8520BA
S1130750400000F03FFCFA20400000F0A1FA8520A0
S1130760400000F037FCFA20400000F099FA8520A0
S1130770400000F02FFCFA20400000F091FA8520A0
S1130780400000F027FC5F4801F092FC5E4E00241C
S1130790301C01F08DFC5D4801F08AFC301C01F036
S11307A087FC02232C700193FA2306A95B000091B5
S11307B0029307A900202A1C012300F0EAFE011E6F
S11307C006D16B461A7E211C514801F071FC02E0EF
S11307D0504801F06DFC0134062CE2D1301C01F0CC
S11307E067FC4D4801F064FC4C4801F061FC4C4846
S11307F001F05EFC4B4C206841684B68013B4B6048
S1130800002B03DA01F06EFCC7B203E00B685A1C3C
S11308100A601F78206882689368013B9360002B0C
S113082011DA91698B420ADB13681F7020688268B1
S1130830136819780A2903D0013313600AE0391CBC
S113084001F0D8FF06E013681F7023689B681A68DC
S113085001321A60344801F02BFC206841684B686F
S1130860013B4B60002B03DA01F03CFCC6B203E011
S11308700B685A1C0A601E78206882689368013BE2
S11308809360002B11DA91698B420ADB13681E70A6
S113089020688268136819780A2903D00133136029
S11308A00AE0311C01F0A6FF06E013681E702368FD
S11308B09B681A6801321A60303F1C48FFB201F08D
S11308C0F7FB052F01D91A488FE76A4605AB167561
S11308D02F70FA22009301239A40029207A90193F0
S11308E000202A1C00F048FE011E00D14BE70948F5
S11308F001F0DEFB47E7C0468431000000FEFF1F25
S113090090310000AF310000E73100000E320000EA
S11309103C32000063320000AC3100008E32000033
S1130920DD320000B4FEFF1FF3320000AD310000E1
S11309300B33000008B5002000F068FB08BD08B5C3
S1130940002001F0CBF808BD10B5174B08229978A8
S1130950114202D099780A439A70144B88210022DC
S113096049015A501249222008701249802040023D
S113097058501868104901401960104910485C58D3
S11309802040C024A404204358500E4B80211A72E6
S1130990197601211A7059700B490A7099790C2241
S11309A01142FBD110BDC04600D007400070044086
S11309B000E0074044100000FFFFF3FF04100000B4
S11309C0FFFFFFF00040064000500640154B16495B
S11309D030B51A1E8A420CD0144C0023A408A3423A
S11309E004D098000D5801331550F8E7104B9A6065
S11309F001E00F4A93600F4A0F490023891A8B4282
S1130A0004D0D45C0D48C4540133F8E70C4A0D49B2
S1130A100023891A8B4204D0D018002404700133B7
S1130A20F8E730BD000000000000000000000000F6
S1130A3000ED00E0583E0000143F000000FEFF1FE0
S1130A40BCFEFF1F6CFFFF1F002812D0012814D129
S1130A500A4A80235B001360094A1360094A136041
S1130A60094A1360094A1360094A1360094A13606A
S1130A7003E08022084B52001A60704700A014540F
S1130A8014A0145418A014541CA0145428A01454D2
S1130A902CA0145434A0145430901454002805D1BC
S1130AA0034A80239B001360024A13607047C046C8
S1130AB00CA0145410A01454002805D1034A802318
S1130AC09B001360024A13607047C04604A014548C
S1130AD008A0145408B5002000F064F9012000F0C7
S1130AE061F9054B8022120200201A60FFF7ACFF67
S1130AF00120FFF7A9FF08BD58FFFF1F08B500201C
S1130B00FFF7DAFF054B8022D20496211A600020F9
S1130B1089011122FFF76CFD08BDC04604800C5DFD
S1130B2008B5031E05D106484621064A064B01F0C6
S1130B3095F94170002018705860986008BDC0464F
S1130B404B3300003C330000AC33000010B5041EEE
S1130B5005D10A489A210A4A0A4B01F07FF94378E1
S1130B600120FF2B08D000F06DF963780133DBB26C
S1130B70637000F05BF9002010BDC0464B330000E9
S1130B8022330000AC33000038B5041C0D1C0028CF
S1130B9006D1A2210748FF31074A084B01F05EF94C
S1130BA000F050F9E3681D43E56000F03FF90020D0
S1130BB038BDC0464B3300002F330000B83300006B
S1130BC00A4B00229A641A1C40329A631A1C30326F
S1130BD09A621A1C20329A611A1C10329A60044AD2
S1130BE01360044B9B60DB607047C04600FFFF1F2F
S1130BF0ECFEFF1FF0FEFF1F024B00221A60186874
S1130C0080B270470C007C5070B5041C0E1C002888
S1130C1005D120486321204A204B01F01FF9437875
S1130C20002B0AD000F00EF963780025013BDBB2FB
S1130C306370257000F0FAF829E00225002926D017
S1130C400378002B16D0FFF7D7FF6368A268984299
S1130C5001D3C31A03E08021C31A49025B18032598
S1130C609A4214D200F0EEF80023237000F0DEF86C
S1130C7002250CE003254B1C09D000F0E3F8012306
S1130C80237000F0D3F8FFF7B7FFA6606060281C5C
S1130C9070BDC0464B330000D6330000AC330000B7
S1130CA038B5051CFFF7A8FF041CFFF7A5FF031BBD
S1130CB0A04203D28022001B520283189D42F4D228
S1130CC038BD000010B5FFF77BFF094A012313600C
S1130CD00849094A0020094C106008600421216079
S1130CE0074C216007490B6007490860136010BD79
S1130CF03880045000008450000004500000045167
S1130D000400045104000C50000004531F2303404A
S1130D108021DA054905114342090448920012185A
S1130D20081C104301229A40026070472880044046
S1130D3008B5054800F0A6FE044B1968C9B2013194
S1130D40FFF7EAFB08BDC046004006404480145843
S1130D5008B5054B186800F0B9FE0023984201D08D
S1130D60024B1B68181C08BD683B000058FFFF1F9E
S1130D7008B5094B1B68DBB2022B06D0032B07D046
S1130D800020012B07D1054805E0FFF7E1FF02E051
S1130D90034800F061FE08BD04800C5D006CDC02B9
S1130DA00040064008B5012806D9F0210548FF3166
S1130DB0054A064B01F052F8054B185CFFF7A6FFF5
S1130DC008BDC046E5330000BA35000062340000B7
S1130DD0E333000008B5002805D005480549064A54
S1130DE0064B01F03BF86620FFF790FF08BDC046B4
S1130DF0E53300007F020000D43500000C3500000C
S1130E0008B5002805D005480549064A064B01F0F7
S1130E1025F89420FFF77AFF08BDC046E5330000AB
S1130E20AF020000ED35000044350000044A1368A9
S1130E30002B04D0013B1360002B00D162B6704735
S1130E4050FFFF1F72B6024B1A6801321A607047D6
S1130E5050FFFF1F0368F7B51D0AFF263540264AD9
S1130E601E40AB009F58254A041C9A58281C019226
S1130E70FFF798FF0022381C311C00F02BFF227969
S1130E801F2E04D91E489A211E4A1F4B24E0019BA1
S1130E90B6009E1984235B05334352001A608023F5
S1130EA062795B0533431A60A27990235B0533436F
S1130EB012011A60E379154A16431A043260002BB2
S1130EC018D0134B5B5D002B14D05BB2002B05DAFA
S1130ED01048114A114B5D2100F0C0FF1F2B04DDA7
S1130EE00C485E210C4A0E4BF6E701229A40131C73
S1130EF00C4A1360F7BDC046FC3B0000F43B000005
S1130F0009360000FA370000913600000000181876
S1130F10043C00009B360000403800002F370000DE
S1130F203E37000000E100E0F8B50368041CFF252B
S1130F30180A2840144A1D4083009E58134A9F589B
S1130F40FFF730FF301C291C012200F0C3FE626849
S1130F50301C291C00F0DEFE227A1F2D05D90C4816
S1130F60AD210C4A0C4B00F079FFAD0088237D19AC
S1130F705B052B4392001A6098235B051D43637A3B
S1130F809B012B60F8BDC046FC3B0000F43B000015
S1130F90093600000E3800009136000038B50C1CEC
S1130FA0002802D1002C09D112E003680133F9D0E2
S1130FB0051C0835FFF74EFF281CF6E723680133AC
S1130FC006D0251C201C0C35FFF7AEFF2C1CF5E7C2
S1130FD038BD0000010A08B5FF231940074A8900FB
S1130FE08A5818401F2805D90548CB21054A064BC5
S1130FF000F034FF01238340D36008BDFC3B0000B4
S11310006937000027380000F137000007B50028D1
S113101005D00C483C210C4A0C4B00F01FFF0C4B34
S11310201B681A1C0193942302325B0513431B783B
S1131030DBB2002B02D000F0B9FA02E0181C00F079
S11310401BFB07BD52380000DE380000BD3800002D
S1131050F4380000021C80230C325B0513431B7818
S1131060002BF7D00171704738B50D1C002806D04D
S1131070AE210B48FF310B4A0B4B00F0EFFE0B4B3C
S11310801C68201C1830291CFFF7BEFD0328F8D06B
S1131090002801D004232374207CC0B238BDC0468C
S11310A07E390000153A0000BD38000054FFFF1FD0
S11310B0F0B589B005930EAB01921A78002806D0DA
S11310C0F92139484900394A394B00F0C7FE394BF8
S11310D01B680293384B1C6807AB1880A37C0493ED
S11310E00123E374A37453425341DBB203930B888B
S11310F09D0A1E3D6A425541EDB2DEB2002D01D07B
S11311001E0ADFB276000023F6B29D4205D1019A91
S11311102B1C002A01D1039AD3B21E4307AB1E70C5
S11311200122002D01D05F700222A360E2600298C8
S1131130311CFFF78FFF00200F99FFF795FF277CE5
S1131140FFB2002F0DD1019B002B0AD0059AA3609A
S1131150E26019780298FFF77DFF381C0F99FFF7BA
S113116083FF237C002B17D1039B002B14D0002D6D
S113117002D1019A002A0FD0012700250298E760C6
S1131180A56000F02BFE391C31430298FFF762FF83
S1131190281C0F99FFF768FF0023207CE374049B4D
S11311A0C0B2A37409B0F0BD7E3900002A39000032
S11311B0BD380000F438000054FFFF1F10B50028AC
S11311C006D0E52112484900124A134B00F046FEAE
S11311D0124B1868124B1C68E37C002B05D0237C4F
S11311E0052B02D0237C042B09D19823821C5B0598
S11311F0134300221A7000F003FE01236374A37CDE
S1131200002B03D0201C1830FFF7A0FC10BDC046F3
S11312107E390000F8380000BD380000F4380000C2
S113122054FFFF1FF7B50D1E04D123485721234A4D
S1131230234B05E0002805D01F48204A214B5821A4
S113124000F00CFE204B214F1B683C6801930126E3
S1131250002C2FD12422081C211C00F084FE281C01
S1131260211C1830FFF75CFC201CFFF7B3FD01982C
S113127000F068FD164B3D601B785BB2002B04DA6E
S113128014485D21144A154BDAE71F2B04DD11487D
S11312905E21114A124BD3E7321C9A40131C114AA7
S11312A013606E74019E9C235B0502361E438023EB
S11312B03370261C301CFEBD7E39000051390000FD
S11312C0E7390000BD380000F438000054FFFF1F68
S11312D0F13800009B360000033A00002F3700006D
S11312E03E37000000E100E070B5061C0C1E04D17E
S11312F00F48A5210F4A104B05E0002805D00C48E3
S11313000C4A0E4BA62100F0A9FD0D4B4A681D683E
S11313106B699A420AD0FFF70BFD0A4B011C626805
S11313201868331C00F01CFD64686C6170BDC04615
S11313307E39000064390000EE390000BD38000039
S113134054FFFF1FF4380000F0B587B005930FABCE
S11313501B780F1C04920393002805D09A21374868
S11313608900374A374B06E00C9A002A05D13348E6
S11313703549334A354B00F071FD354B1D68354B0B
S11313801C68637C002B02D10320207454E0039B6F
S1131390002B01D11E220E92039B0026E660391C0D
S11313A02674A374301CA66026606674FFF79CFF45
S11313B09022AB1C52051A43102111708422E91C9F
S11313C052050A4302211170982252051A43402300
S11313D01370281C029200F001FD0E9B0122009262
S11313E00193391C301C049A059BFFF761FE277C8E
S11313F0FFB2B7420FD10C9A0D9BA260E360117843
S1131400281CFFF727FE039AB24213D0381C0E990A
S1131410FFF72AFE0EE0237C042B0BD1029B012252
S11314201E70EB785B09134202D0281C00F0E8FC24
S113143001236374207CC0B207B0F0BD7E39000084
S11314403E390000BD38000069020000F539000093
S1131450F438000054FFFF1FF0B589B0069211AABA
S1131460079305910E9B1778002805D0B1213B48BE
S113147089003B4A3B4B05E0002B05D137483A49EC
S1131480374A3A4B00F0EAFC394A12680292394A68
S11314901468627C002A02D1032020745BE0002FD0
S11314A001D11E2110910F9A002562602360E5602E
S11314B0281C25740599A5606574A774FFF714FFAB
S11314C0029E902302365B05334303930399102352
S11314D0029A0B70842303325B05134302221A70B1
S11314E098235B0533430493049A402313700298B2
S11314F000F074FC109B00950193281C079B059930
S1131500069AFFF7D5FD237CDBB2AB4212D10399D7
S11315108C220B700F9952053243012900D1082304
S11315201370029A1379002F13D010990020FFF73B
S11315309BFD0EE0237C042B0BD1049B02991D70B0
S1131540CB7801255B092B4202D0081C00F058FC23
S11315506574207CC0B209B0F0BDC0467E3900007D
S1131560283A0000BD380000C5020000FC39000024
S1131570F438000054FFFF1F1FB5069C0094079C1D
S11315800194089C029401240394FFF7DDFE04B047
S113159010BD1FB5069C0094079C0194089C0294FE
S11315A001240394FFF758FF04B010BD70B5002860
S11315B006D0AE2127484900274A284B00F04EFCAC
S11315C0274B1D688423EA1C5B05134302221A700F
S11315D0244B1C68AB18902252051A431278E97800
S11315E0D2B28E0635D594214905194309780029CC
S11315F02FD0012A15D1EB78134202D0052323748E
S11316000CE0E0680138E060002807D0A368281CDB
S11316105A1CA2605978FFF71DFD1AE0FFF7CEFDB2
S113162017E06268013A6260002A07D08C214905FC
S1131630012A07D10B4308221A7005E0101CFFF79A
S1131640BDFD01E00B43187023685A1C22602A79FF
S11316501A7070BD7E39000011390000BD380000D9
S1131660F438000054FFFF1FC31C842040051843B6
S11316700223037070470000F0B5071C89B00028EE
S113168005D08F488F49904A904B00F0E7FB904B70
S113169090211D684905EB780A1CDBB20693AB1D4B
S11316A0E81C1A43EE7805901078F6B2C0B284466E
S11316B0942040051843007807969826441EA041BC
S11316C07605C0B2334303901878824CC0B20090C0
S11316D0A81C0190084301782468C9B204910399B5
S11316E00290002930D0604600280CD010231370DB
S11316F0281CFFF7B9FF236B002B00D1DEE0626BDF
S1131700381C0121D6E0009900291DD040221A700E
S1131710281CFFF7A9FF231C2C331B78002B02D1B4
S1131720019A16433370236B002B03D000208021D1
S1131730626B9847E37D002B04D0201C1830802175
S1131740FFF722FA0A23B8E0079B281C9E11FFF733
S11317508BFF0698012703113E403B4219D090238A
S113176005995B050B4310221A70002E04D0E8780B
S11317704007C00F10D11AE0082323702C342378BB
S1131780002B00D09AE0982201985205024313706E
S113179094E0002E15D0EAE7029910230B70236B16
S11317A0002B69D000200221626B984764E0029A02
S11317B01070236B002B02D0626B042198472B79A5
S11317C07CE0049B012B27D1EB780498034253D08F
S11317D002990E702B79231C2C331B78002B07D114
S11317E0039A002A04D1982301985B0503431A70D5
S11317F0236B002B03D000200821626B9847A37D44
S1131800002B04D0201C18300821FFF7BDF9002359
S11318106360E360237551E02B79A268DBB2002A90
S113182028D021690B70236901332361A368013B2C
S1131830A360A368002B41D1039A002A11D1231C71
S11318402C331B78002B04D1982301985B050343A8
S11318501A70E37D002B04D0201C18302021FFF7E0
S113186093F9236B002060752061834226D0626B5C
S113187020211FE0072320E06368002B1CD0E168CF
S11318800B78291C80220C3152050A431278002A55
S1131890F7D02B71E3680133E3606368013B636055
S11318A0606800280AD1236BE0602075002B05D006
S11318B0626B1021984701E00623237009B0F0BD44
S11318C0563A0000330200003E3A0000BD380000E2
S11318D0F438000054FFFF1FF0B50F1C87B09100CF
S11318E00390381C141CFEF717FE82B29100381CBA
S11318F00492FEF711FE251AA04200D9051B052605
S1131900331C63430422029301920299381CFEF7AC
S113191003FE81B205907143381CFEF7FDFD231AC6
S1131920A04200D9031BAB4204D8059A1D1C92B2F5
S113193004920196029B01361B190293212EE4D1D5
S1131940201C6421FEF7E8FD0323434301209D424C
S113195019D2019B043B032B06D8039AC4235B05CD
S11319601343802292021A60039AE1235B05134316
S1131970019A0020013A12061A60039A83235B0538
S11319801343049A1A6007B0F0BDF42310B55B0545
S1131990022903D1184380239B0508E0041C9022EC
S11319A008345205224309011843116000230360DF
S11319B010BD842308304A085B05034352001A60B3
S11319C080235B051843012319400160704710B55B
S11319D08A1891420AD0DC23041D5B0523431B684B
S11319E0002BF8D00B780131C360F2E710BD30B59D
S11319F0031C8A180020914214D0D4241D1D6405B0
S1131A002C432468002CF8D0DC680C70CC246405CA
S1131A102C432568002D03D08020000320600D2076
S1131A200131E8E730BD000084235B0503431A78E5
S1131A3000239A4209D080235B05013018430378C0
S1131A40012B01D1024B00E0024B181C7047C04629
S1131A5000127A0080841E0038B5084A031C08333B
S1131A6013431D78064A031C183313431C78FFF7ED
S1131A70DBFFEDB2E4B22C19E04038BD0000901059
S1131A800000101010B50D4A831D13431B78041C6D
S1131A90DBB2002B0FD0012B07D1FFF7C5FF084B9A
S1131AA008341C432378D84006E00020022B03D1DD
S1131AB0044B186800E0044810BDC046000008113B
S1131AC00000901058FFFF1F006CDC029C235B0594
S1131AD018430078431E9841C0B2704707B50028E8
S1131AE005D00C483A210C4A0C4B00F0B7F90C4BCA
S1131AF01B681A1C0193902303325B0513431B7864
S1131B00DBB2002B02D000F02BF802E0181C00F02E
S1131B1091F807BDD73A0000C43A0000423B0000E8
S1131B20643B00000C4A08B580000C4B8158C35834
S1131B309C2003314005002208431A71027094204E
S1131B40400501430A701A7F002A03D0181C203074
S1131B50FEF7FCFF08BDC046643B00005CFFFF1FAE
S1131B6010B51F4B8200D3581E49525819790029C9
S1131B7034D05969002911D09C21490511430978B1
S1131B8000290BD09479D968E4B2002903D00C70F1
S1131B90D9680131D9605969013959611969002934
S1131BA014D0942149051143097800290ED099686D
S1131BB0002903D00C780131996000E00C1C947169
S1131BC01A69013A1A619A6901329A611A69002AFA
S1131BD004D15B69002B01D1FFF7A4FF10BDC046FF
S1131BE05CFFFF1F643B000008B5104B8000C35826
S1131BF00F4A81580022581CC2779C2003314005AB
S1131C000843DA621A701A835A629A621A6302707B
S1131C109420400501430A701A1C38321278002AB5
S1131C2003D0181D0121FEF7AFFF08BD5CFFFF1FA5
S1131C30643B000038B5254B8200D35824495258E0
S1131C40591CC97F00293FD0D96A002916DB942189
S1131C50490511430978002910D0596A1C7F0029CD
S1131C6005D0DD6A002D02DD0C78013159629471D2
S1131C70D96A0139D962596B01315963D96A00298A
S1131C8005DA9421D41C4905214300240C70196BF6
S1131C90002911DD9C2149051143097800290BD045
S1131CA091799A6AC9B2002A03D011709A6A0132F2
S1131CB09A621A6B013A1A63DA6A002A04DC1B6B13
S1131CC0002B01DCFFF790FF38BDC0465CFFFF1F0F
S1131CD0643B000008B51F2905D90B482C210B4A89
S1131CE00B4B00F0BBF814308023012A04D11B05F0
S1131CF08A401843111C04E0DB04184301238B4081
S1131D00D943016008BDC0466C3B0000C93B0000DC
S1131D10F137000008B51F2905D907484021074AB3
S1131D20074B00F09BF801238B40002A01D043604D
S1131D3000E0836008BDC0466C3B0000DC3B000053
S1131D40F13700000023C222037043708370C37014
S1131D5043718371C371037242728372C372704799
S1131D60F0B587B00293FA239B0053430027012563
S1131D700490059101936D423C1C00970123A340FC
S1131D8003930026144A059893195988039B5943D1
S1131D90FEF7C2FB019A831A824200D9131AAB429E
S1131DA004D20D4A0094975D1D1E02D00436C82E3D
S1131DB0E8D10134032C01D0002DDFD1029B002B8C
S1131DC000D01D60009A3F231F4093011F43049BD2
S1131DD0FFB25F7007B0F0BD063C000094230230F0
S1131DE05B0503431B78002B04D088235B05184351
S1131DF0042303E080231B0518433023037070473A
S1131E0010B59422831C52051A431478011C022035
S1131E10012C1CD11278012A06D004210C48FF3170
S1131E200C4A0D4B00F01AF88022D2041343CF223F
S1131E301A708023DB00C8782022024004D0013BC2
S1131E40002B03D0C046F6E7101C00E0092010BDAB
S1131E50CE3C0000463D0000293D00007FB5061C35
S1131E6009480068C068002A02D0151C074C01E02C
S1131E70074C251C1A1C0091331C06490194029539
S1131E8000F026F800F080FDB4FEFF1F573D00006F
S1131E90AE310000643D0000014B18687047C04635
S1131EA0B4FEFF1F084B10B5041C002B02D0002108
S1131EB000E000BF054B1868836A002B00D09847E8
S1131EC0201C01F05DF9C04600000000983D0000B0
S1131ED00EB403B503AB04CB054A011C1068039A86
S1131EE0019300F0F5F902B008BC03B01847C046EE
S1131EF0B4FEFF1F70B50E4B0E4D0024ED1AAD104D
S1131F001E1CAC4204D0A300F35898470134F8E7F0
S1131F1001F08EFF084B094D0024ED1AAD101E1C74
S1131F20AC4204D0A300F35898470134F8E770BDDD
S1131F30503E0000503E0000503E0000543E000061
S1131F4008B5034B011C186800F05EF808BDC046D4
S1131F50B4FEFF1F10B50023934203D0CC5CC454DD
S1131F600133F9E710BD031C8218934202D01970A3
S1131F700133FAE77047000030B5002940D0043936
S1131F800B68002B00DAC9181E4A1368141C002BB6
S1131F9002D14B60116033E099420FD208680A18ED
S1131FA09A4205D113685268C01808604A6000E07C
S1131FB04B60216024E08A4203D8131C5A68002A2B
S1131FC0F9D11D685C198C420BD10968691858183D
S1131FD01960904214D114685268091919605A6042
S1131FE00EE08C4202D90C23036009E008680C1847
S1131FF0944203D114685268001908604A60596019
S113200030BDC04664FFFF1F70B50323CD1C9D4344
S11320100835061C0C2D01D20C2501E0002D3FDBF8
S11320208D423DD3204B1C681A1C211C002913D05F
S11320300868431B0DD40B2B02D90B60CC181EE08F
S11320408C4202D1636813601AE0486860600C1C1B
S113205016E00C1C4968E9E7144C2068002803D1F9
S1132060301C00F06FF82060301C291C00F06AF866
S1132070431C15D0C41C03239C4384420AD125600D
S1132080201C0B300722231D9043C31A0BD05A4245
S1132090E25008E0211A301C00F054F80130EED16F
S11320A00C233360002070BD64FFFF1F60FFFF1F1F
S11320B00FB40B4B13B51C68002C05D0A369002B7F
S11320C002D1201C00F084FD05ABA168201C049AF9
S11320D0019300F0FDF816BC08BC04B01847C046D4
S11320E0B4FEFF1F38B5051C0C1C002804D08369FE
S11320F0002B01D100F06CFD0F4B9C4201D16C68A8
S113210008E00E4B9C4201D1AC6803E00C4B9C42AE
S113211000D1EC68281C211C00F070FE002807D1B7
S11321206368013B636023685A1C2260187801E0ED
S11321300120404238BDC046D03D0000F03D0000C3
S1132140103E000038B5074C0023051C081C236012
S1132150FEF732FA431C03D12368002B00D02B6016
S113216038BDC04668FFFF1FF7B51E1C3C4B041C5E
S11321701D680F1C0192002D05D0AA69002A02D106
S1132180281C00F025FD374B9C4201D16C6808E007
S1132190354B9C4201D1AC6803E0344B9C4200D1E6
S11321A0EC68019B022B57D8002E55DB281C211C00
S11321B000F07AFC00236360A361A3891A0603D5A7
S11321C0281C2169FFF7D8FEA38983229343A381A6
S11321D0019B022B13D0002F25D1002E01D1802684
S11321E0F600301CFFF7ACFE071E18D18020C0009B
S11321F0FFF7A6FE071E10D10120404200E0002098
S1132200A38902221343A3810023A360231C473321
S1132210236023610123636120E08026F600A38903
S113222080221343A381019A012A04D1A389134371
S1132230A3817342A3610E4B0020AB62A389276084
S1132240276166611A0709D5032213405A42534194
S11322505B421E40A66001E001204042FEBDC04634
S1132260B4FEFF1FD03D0000F03D0000103E000012
S1132270292B00000023C25C0133002AFBD1581E25
S11322807047936810B5013B9360002B05DA94699D
S1132290A34208DBCBB20A2B05D01368581C10608C
S11322A01970C8B201E000F0A5FA10BDF8B5061C1B
S11322B00F1C141CD518AC4208D02178301C3A1CD1
S11322C0FFF7DFFF0134431CF5D100E00020F8BD27
S11322D0F0B59FB0061C0F1C03920593002804D090
S11322E08169002901D100F073FC754B9F4201D133
S11322F0776808E0734B9F4201D1B76803E0724BE3
S11323009F4200D1F768BB891A070AD53B69002BA5
S113231007D006AD00236B6120236B763023AB76A8
S11323203BE0301C391C00F0BDFA0028F1D001203C
S11323304042C2E0059A111D12680591002A76DB1D
S11323400992013423782E2B00D181E021785F4853
S1132350032200F03BFD002807D05C492A68431A99
S1132360402098401043286001342178631C584869
S113237006220393297600F029FD002800D18AE083
S1132380544B002B7ED1059B07220733934308331C
S113239005936A69049953186B61039C2378002B95
S11323A004D10399611A029110D003E0252BF8D0CF
S11323B00134F3E7301C391C039A029BFFF776FFC4
S11323C0013075D06A69029953186B612378002B28
S11323D06ED0012252426A606A4600235B320134A5
S11323E02B60EB60AB601370AB6521783A48052233
S11323F000F0ECFC002808D0374A0134831A01208D
S113240098402B6818432860EFE72B68D90603D55A
S11324106A4620215B3211701A0703D56A462B21C4
S11324205B32117022782A2A84D0099B05E052423B
S1132430EA60022213432B6083E72278303A092AA8
S113244004D80A214B4301349B18F6E7099379E732
S113245063782A2B09D1059B02341A1D1B68059247
S1132460002B0DDA01235B420AE0013400232278B9
S1132470303A092A04D80A214B4301349B18F6E761
S1132480079363E705AB0093301C291C3A1C134BDC
S113249000E000BF07E005AB0093301C291C3A1C88
S11324A00E4B00F091F804900499013100D070E7CC
S11324B0BB895A0600D53AE70B981FB0F0BDC04659
S11324C0D03D0000F03D0000103E0000A23D0000A1
S11324D0A63D0000000000009C3D0000AD2200006D
S11324E0F7B5151C01930A698B68061C0C1C9342F2
S11324F000DA131C221C2B6043321278002A01D00C
S113250001332B602068800602D52B6802332B60D0
S1132510216806270F401FD0231C43331B785A1E03
S11325209341226892061FD5E11840313020C870CB
S1132530211C5A1C45310978A21840320233D1704B
S113254012E0221C301C019919320123089FB8475C
S1132550013011D0009F01370097E0682968009F7F
S1132560431A9F42EDDBD7E7221C301C019943320A
S1132570089FB847013002D10120404223E020687F
S113258006212B68E26801400025042903D1D51AED
S1132590EB43DB171D40A26823699A4201DDD31A7D
S11325A0ED1800270097009FAF420BDA221C301C65
S11325B001991A320123089FB8470130DCD0009FEB
S11325C00137EFE70020FEBDF0B50D1C8BB043359D
S11325D006920590079304950B7E0C1C109A6E2BA3
S11325E000D1A7E011D8632B22D009D8002B00D149
S11325F0B0E0582B00D0C0E045310B707B4D4EE06D
S1132600642B1CD0692B1AD0B7E0732B00D1A5E042
S113261009D86F2B29D0702B00D0AEE00E68202390
S113262033430B6036E0752B1FD0782B32D0A4E0F7
S113263013680D1C191D423511601B689FE0216849
S113264013680E0603D5191D11601E6805E04806BF
S1132650F9D5191D116000215E5E644B002E3BDA32
S1132660049D2D2276422A7036E0216813680E06F6
S113267003D5191D11601E6804E04806F9D5191D1B
S11326801E881160594B227E039308276F2A1ED09F
S11326900A271CE0231C78214533554D1970116815
S11326A02368081D039510601E0601D50E6802E01C
S11326B05806FBD50E88D90702D520221343236080
S11326C01027002E03D1226820239A432260231C62
S11326D0002243331A7001E003930A276368A3605E
S11326E0002B03DB2568042295432560002E02D1CC
S11326F0049D002B0ED0049D301C391CFDF750FFA7
S11327000398013D435C301C2B70391CFDF704FF1A
S1132710061EF1D1082F09D12168C90706D56268C0
S113272023699A4202DC013D30232B70049E731B03
S113273023612AE0086813684969050604D5181D51
S113274010601B68196005E04606F8D5181D106076
S11327501B68198000232361049D16E01368191D6A
S113276011601D68281CFFF785FD6368206198428D
S113277000D923612069606004E0251C42352B7078
S113278001232361049E00233370079E059800965D
S1132790211C09AA069BFFF7A3FE013002D10120E8
S11327A0404221E02A1C059806992369079DA84701
S11327B00130F4D02668B60705D4099BE068984236
S11327C012DA181C10E00025E0680999431A9D42AA
S11327D0F3DA221C0598069919320123079EB047A3
S11327E00130DCD00135EFE70BB0F0BDAD3D0000AA
S11327F0BE3D000070B5051C0E1C141C002804D03E
S11328008269002A01D100F0E3F9234B9C4201D1F3
S11328106C6808E0214B9C4201D1AC6803E0204B7A
S11328209C4200D1EC68A369A360A3891A070AD566
S11328302369002B07D022682369F6B2D01A626993
S113284090420FDB08E0281C211C00F02BF8002824
S1132850F1D0012040421DE0281C211C00F024F985
S11328600028F6D1A3680130013BA36023685A1CF9
S113287022601E706369984205D0A389301CDA0770
S113288008D50A2E06D1281C211C00F00DF90028B9
S1132890DFD1301C70BDC046D03D0000F03D0000CB
S11328A0103E0000344B70B51D68061C0C1C002D36
S11328B005D0A969002902D1281C00F089F92F4B01
S11328C09C4201D16C6808E02D4B9C4201D1AC685C
S11328D003E02C4B9C4200D1EC68A28993B2190707
S11328E021D4D90605D40923336040231A43A28195
S11328F03FE05A0713D5616B002908D0231C4433E9
S1132900994202D0301CFFF737FB00236363A3898D
S113291024229343A3810023636023692360A38952
S113292008221343A381216900290BD1A389A02282
S113293092001A4080239B009A4203D0301C211C31
S113294000F0F4F9A38901221A4005D0616900223C
S1132950A2604A42A26103E0990700D46269A260BE
S113296022690020824206D1190604D5402213436D
S1132970A3810120404270BDB4FEFF1FD03D000082
S1132980F03D0000103E000008B5062000F0EAFA11
S1132990012000F0F5FBF7B58B89051C0C1C190709
S11329A05ED46268002A02DC276C002F1ADDE76A15
S11329B0002F17D000222E682A60802252011A406C
S11329C001D0626D15E0281C216A0123B847021C5E
S11329D0411C0ED12B68002B0BD01D2B01D0162BC4
S11329E002D12E6000205EE0A38940210B43A38125
S11329F059E0A3895F0706D56168636B521A002BFF
S1132A0001D0276CD21B281C216A0023E76AB8472F
S1132A10A289411C06D12B68002B03D01D2B01D0A9
S1132A20162B19D10023636023692360D70405D5CD
S1132A30411C02D12A68002A00D16065616B2E60B6
S1132A400029CFD0231C4433994202D0281CFFF71D
S1132A5093FA0020606326E040231A43A28122E017
S1132A602669002EBED027680022BF1B019726606E
S1132A70990700D16269A260019F002FB2DD281C72
S1132A80216A321C019BA76AB847002806DCA38987
S1132A90402213430120A381404204E0019F3618E1
S1132AA03F1A0197E8E7FEBD0A6938B5051C0C1CFE
S1132AB0002A01D100201CE0002804D08369002BE7
S1132AC001D100F085F80B4B9C4201D16C6808E001
S1132AD0094B9C4201D1AC6803E0084B9C4200D1F5
S1132AE0EC680C22A35E002BE4D0281C211CFFF709
S1132AF052FF38BDD03D0000F03D0000103E000004
S1132B0008B5011E05D1054B0549186800F0ECF81D
S1132B1003E0044B1868FFF7C7FF08BD983D0000A9
S1132B20A92A0000B4FEFF1FF8B5041C071C483492
S1132B30002C12D0A5686668013E0CD4AB89012B29
S1132B4007D90E22AB5E013303D0381C291CFFF7D2
S1132B50ABFF6835F0E72468EAE7F8BD002310B559
S1132B60041C03604360836081814366C281036106
S1132B7043618361191C08225C30FFF7F4F9054BAB
S1132B8024626362044BA362044BE362044B236339
S1132B9010BDC046A52F0000CD2F00000530000059
S1132BA03130000070B54B1E68255D430E1C291C96
S1132BB07431FFF729FA041E08D000210160466031
S1132BC02A1C0C30A0606832FFF7CDF9201C70BDC0
S1132BD0836913B5041C002B27D18364C364036584
S1132BE0124B134A1B688262984201D1012383610C
S1132BF0201C00F01FF86060201C00F01BF8A0608F
S1132C00201C00F017F80421E06000226068FFF740
S1132C10A5FFA06809210122FFF7A0FFE0681221A7
S1132C200222FFF79BFF0123A36113BD983D00001F
S1132C30292B0000F8B51D4B071C1E68B269002A39
S1132C4002D1301CFFF7C4FF4836B4687368013BF7
S1132C5005D40C22A55E002D10D06834F7E7336844
S1132C60002B06D1381C0421FFF79CFF306000289C
S1132C7001D03668E9E70C233B6016E001235B4290
S1132C80E381201C0123A38165662560A56065603E
S1132C9025616561A5615C30291C0822FFF763F991
S1132CA06563A563A564E564201CF8BD983D000038
S1132CB0F7B5041C019148340026002C12D0A568F5
S1132CC06768013F0CD4AB89012B07D90E22AB5E98
S1132CD0013303D0281C019B984706436835F0E76D
S1132CE02468EAE7301CFEBDF7B5041C071C0191FB
S1132CF048340026002C16D06268A5680092009A19
S1132D00013A00920DD4AB89012B08D90E22AB5E97
S1132D10013304D0381C291C019B984706436835AD
S1132D20EDE72468E6E7301CFEBD0000F0B58B89B2
S1132D3091B0051C0C1C9A0725D40E23C95E0029EA
S1132D4006DAA78980231F400FD0002740260EE013
S1132D5001AA00F099F90028F3DB029BF0273F0257
S1132D60184A1F40BF187B425F418026F600281C8A
S1132D70311CFFF749F900280CD1A3899A051FD407
S1132D8002221343A381231C4733236023610123BD
S1132D90636115E00C4B8022AB62A389206013436E
S1132DA0A38120616661002F0AD00E23E15E281CF6
S1132DB000F07CF9002803D0A38901221343A381E6
S1132DC011B0F0BD00E0FFFF292B0000C9B282184A
S1132DD0904204D003788B4202D00130F8E70020FF
S1132DE0704708B5828909231A400023092A02D1B1
S1132DF0FFF786FE031C181C08BD0000F8B5051C6F
S1132E000C1C002804D08169002901D1FFF7E0FEE1
S1132E10394B9C4201D16C6808E0384B9C4201D18B
S1132E20AC6803E0364B9C4200D1EC68A2890023D5
S1132E30636093B299065CD4590717D4D90602D4B7
S1132E4009232B6052E0082633420AD0281C211C97
S1132E50FFF72AFE00284CD1A389A060B343A381C5
S1132E60A061A38904221343A38112E0616B0029AA
S1132E700FD0231C4433994202D0281CFFF77CF85E
S1132E80236C002060636360834202D0E36B2360A1
S1132E9031E02169002903D1281C211CFFF746FFDA
S1132EA0A789BEB2B3070FD00123A381154B1649DE
S1132EB01868FFF7FDFE0923A7811E409E4203D137
S1132EC0281C211CFFF767FD2269281C6369226006
S1132ED0216A656AA847031C6060002083420ADCFB
S1132EE0A289834201D1202301E0606040231A4378
S1132EF0A28101204042F8BDD03D0000F03D000019
S1132F00103E0000983D0000E32D000038B5041C7D
S1132F100D1E1F2D04D916230360012040421FE01B
S1132F20436C002B04D08A009A181368002B08D134
S1132F30201C00F033F82A1C011C201C00F01CF893
S1132F400EE0012B0BD0591C03D116230360012082
S1132F5006E00024281C14609847201C00E0002090
S1132F6038BD000008B5034B011C1868FFF7CEFFFD
S1132F7008BDC046B4FEFF1F38B5074C0023051C2E
S1132F80081C111C236000F0EBF8431C03D12368D8
S1132F90002B00D02B6038BD68FFFF1F08B500F080
S1132FA0CFF808BD38B50C1C0E25495F00F0A4F815
S1132FB0002803DB626D1318636503E0A289024BEA
S1132FC01340A38138BDC046FFEFFFFFF8B51E1CB8
S1132FD08B89051C0C1C171CDA0505D50E23C95E4C
S1132FE00022022300F074F8A289054B281C134028
S1132FF0A3810E22A15E331C3A1C00F01FF8F8BD19
S1133000FFEFFFFF38B50C1C0E25495F00F060F898
S1133010A389421C03D1054A1340A38104E0802202
S113302052011343A381606538BDC046FFEFFFFF23
S113303008B50E23C95E00F015F808BD38B5084C74
S1133040051C00202060081C111C1A1CFDF72CFB19
S1133050431C03D12368002B00D02B6038BDC0462D
S113306068FFFF1F38B5074C0023051C081C2360AC
S113307000F056F8431C03D12368002B00D02B60CA
S113308038BDC04668FFFF1F38B5074C0023051C38
S1133090081C111C236000F04BF8431C03D1236867
S11330A0002B00D02B6038BD68FFFF1F38B5074CDC
S11330B00023051C081C236000F04AF8431C03D1BC
S11330C02368002B00D02B6038BDC04668FFFF1F6B
S11330D038B5084C051C00202060081C111C1A1C63
S11330E000F046F8431C03D12368002B00D02B606A
S11330F038BDC04668FFFF1F38B5084C051C0020CA
S11331002060081C111C1A1CFDF7E4FA431C03D1AF
S11331102368002B00D02B6038BDC04668FFFF1F1A
S1133120024B5822012040421A60704768FFFF1F7B
S1133130024B5822012040421A60704768FFFF1F6B
S1133140024B5822012040421A60704768FFFF1F5B
S1133150024B582200201A607047C04668FFFF1FC8
S1133160024B5822012040421A60704768FFFF1F3B
S1133170024B5822012040421A60704768FFFF1F2B
S1133180FEE7C046FFFF00004000000064000000AE
S11331900D0A3D3D3D3D3D3D20493243204D617387
S11331A0746572203D3D3D3D3D3D0D0A0D0A000D07
S11331B00A493243204D61737465722072656164FB
S11331C0732076616C7565732066726F6D20493269
S11331D04320536C61766520737562206164647268
S11331E06573733A0D0A000D0A2D2D2D2D2D2D2DED
S11331F02D2D2D2D2D2D2D2D2D2D2D2D2D2D2D2DFB
S11332002D2D2D2D2D2D2D2D2D2D2D2D2D000D0A5A
S1133210536C6176652053756220416464726573F2
S1133220732020207C202020204368617261637415
S11332306572202020202020202020000D0A5B30F1
S113324078253032585D2020202020202020202086
S113325020202020202020202020202030782530ED
S11332603258000D0A49324320636F6D6D756E69E3
S1133270636174696F6E206661696C65642C206596
S113328072726F7220636F64653A202564000D0AC0
S1133290506C6561736520696E70757420536C6140
S11332A07665207375622061646472657373202887
S11332B0312D372920616E6420746865206E65772E
S11332C02063686172616374657220746F20736532
S11332D06E6420746F20736C6176652E000D0A5342
S11332E06C61766520537562204164647265737302
S11332F03A20000D0A496E707574204E657720439C
S113330068617261637465723A20000D0A496E76D1
S1133310616C6964205375622041646472657373DF
S11333202E004F53415F53656D61506F7374004FAE
S113333053415F4576656E74536574004F53415F26
S113334053656D61437265617465002F686F6D65C7
S11333502F6D697436733139346961702F44657324
S11333606B746F702F7465616368696E672D637524
S113337065642D346232352F4B53444B5F312E310B
S11333802E302F706C6174666F726D2F6F73612FA6
S11333907372632F66736C5F6F735F6162737472B1
S11333A0616374696F6E5F626D2E63007053656D47
S11333B000704D7574657800704576656E740068AC
S11333C0616E646C65720071756575650073657412
S11333D0466C616773004F53415F53656D6157617C
S11333E0697400898A2F686F6D652F6D69743673EF
S11333F03139346961702F4465736B746F702F7445
S113340065616368696E672D637565642D34623226
S1133410352F4B53444B5F312E312E302F706C615E
S113342074666F726D2F73797374656D2F73726325
S11334302F636C6F636B2F4D4B4C30335A342F66B4
S1133440736C5F636C6F636B5F4D4B4C30335A34FA
S11334502E63004E554C4C20213D20636F6E6669EF
S11334606700696E7374616E6365203C2073697ACA
S1133470656F6628706F7274476174655461626C1D
S113348065292F73697A656F6628706F7274476156
S113349074655461626C655B305D2900696E737498
S11334A0616E6365203C2073697A656F6628616488
S11334B063476174655461626C65292F73697A6529
S11334C06F6628616463476174655461626C655B0F
S11334D0305D2900696E7374616E6365203C2073EE
S11334E0697A656F662873706947617465546162AF
S11334F06C65292F73697A656F66287370694761F3
S113350074655461626C655B305D2900696E737427
S1133510616E6365203C2073697A656F6628693241
S113352063476174655461626C65292F73697A65B8
S11335306F6628693263476174655461626C655BC8
S1133540305D2900696E7374616E6365203C20737D
S1133550697A656F66286C70756172744761746509
S11335605461626C65292F73697A656F66286C7083
S113357075617274476174655461626C655B305D3A
S11335802900696E7374616E6365203C2073697AE7
S1133590656F662874706D476174655461626C650B
S11335A0292F73697A656F662874706D4761746535
S11335B05461626C655B305D2900434C4F434B5F43
S11335C05359535F456E61626C65506F7274436CFE
S11335D06F636B00434C4F434B5F5359535F456ECE
S11335E061626C65493263436C6F636B00434C4F9B
S11335F0434B5F5359535F456E61626C654C707504
S1133600617274436C6F636B002F686F6D652F6D0F
S1133610697436733139346961702F4465736B741E
S11336206F702F7465616368696E672D6375656477
S11336302D346232352F4B53444B5F312E312E30B3
S11336402F6C69622F6B73646B5F706C6174666F4F
S1133650726D5F6C69622F61726D6763632F4B4C8F
S113366030335A342F2E2E2F2E2E2F2E2E2F2E2E39
S11336702F706C6174666F726D2F68616C2F696E48
S1133680632F66736C5F706F72745F68616C2E6811
S11336900070696E203C20333255002F686F6D65D1
S11336A02F6D697436733139346961702F446573D1
S11336B06B746F702F7465616368696E672D6375D1
S11336C065642D346232352F4B53444B5F312E31B8
S11336D02E302F6C69622F6B73646B5F706C617436
S11336E0666F726D5F6C69622F61726D6763632FC1
S11336F04B4C30335A342F2E2E2F2E2E2F2E2E2F6E
S11337002E2E2F706C6174666F726D2F73797374C3
S1133710656D2F696E632F66736C5F696E74657275
S1133720727570745F6D616E616765722E680030CA
S1133730203C3D206972714E756D6265720069723C
S1133740714E756D626572203C3D2046534C5F4658
S11337504541545552455F494E5445525255505473
S11337605F4952515F4D4158002F686F6D652F6D51
S1133770697436733139346961702F4465736B74BD
S11337806F702F7465616368696E672D6375656416
S11337902D346232352F4B53444B5F312E312E3052
S11337A02F6C69622F6B73646B5F706C6174666FEE
S11337B0726D5F6C69622F61726D6763632F4B4C2E
S11337C030335A342F2E2E2F2E2E2F2E2E2F2E2ED8
S11337D02F706C6174666F726D2F68616C2F696EE7
S11337E0632F66736C5F6770696F5F68616C2E68C6
S11337F00070696E203C20333200504F52545F48B1
S1133800414C5F53657450756C6C436D6400504F4C
S113381052545F48414C5F536574536C65775261F1
S113382074654D6F6465004750494F5F48414C5F74
S1133830546F67676C6550696E4F7574707574006A
S1133840494E545F5359535F456E61626C654952EA
S113385051002F686F6D652F6D697436733139347B
S11338606961702F4465736B746F702F7465616345
S113387068696E672D637565642D346232352F4B2C
S113388053444B5F312E312E302F706C6174666F50
S1133890726D2F647269766572732F7372632F6908
S11338A032632F66736C5F6932635F73686172653C
S11338B0645F66756E6374696F6E2E6300696E7300
S11338C074616E6365203C2048575F4932435F4909
S11338D04E5354414E43455F434F554E5400493275
S11338E0435F4452565F49525148616E646C65723D
S11338F000080000006006404932435F4452565FAE
S1133900436F6D706C6574655472616E7366657235
S1133910004932435F4452565F4D61737465724986
S1133920525148616E646C6572004932435F44527F
S1133930565F53656E644164647265737300493203
S1133940435F4452565F4D617374657253656E6490
S1133950004932435F4452565F4D61737465724946
S11339606E6974004932435F4452565F4D6173740B
S113397065725365744261756452617465002F68A1
S11339806F6D652F6D697436733139346961702FC9
S11339904465736B746F702F7465616368696E67D7
S11339A02D637565642D346232352F4B53444B5F60
S11339B0312E312E302F706C6174666F726D2F64EE
S11339C07269766572732F7372632F6932632F661F
S11339D0736C5F6932635F6D61737465725F647287
S11339E0697665722E63006D617374657200646537
S11339F0766963650074784275666600727842750C
S1133A00666600494E545F5359535F456E61626C5C
S1133A1065495251004932435F4452565F4D6173C8
S1133A2074657257616974004932435F4452565F4A
S1133A304D617374657252656365697665004932D8
S1133A40435F4452565F536C6176654952514861F5
S1133A506E646C6572002F686F6D652F6D697436C6
S1133A60733139346961702F4465736B746F702FCF
S1133A707465616368696E672D637565642D34626E
S1133A8032352F4B53444B5F312E312E302F706C17
S1133A906174666F726D2F647269766572732F73C9
S1133AA072632F6932632F66736C5F6932635F736D
S1133AB06C6176655F6472697665722E6300736CFF
S1133AC0617665005350495F4452565F49525148EC
S1133AD0616E646C6572002F686F6D652F6D69741B
S1133AE036733139346961702F4465736B746F7048
S1133AF02F7465616368696E672D637565642D3421
S1133B006232352F4B53444B5F312E312E302F70A0
S1133B106C6174666F726D2F647269766572732F4F
S1133B207372632F7370692F66736C5F7370695F50
S1133B307368617265645F66756E6374696F6E2E17
S1133B406300696E7374616E6365203C2048575F3F
S1133B505350495F494E5354414E43455F434F557B
S1133B604E54000000600740005006402F686F6DFF
S1133B70652F6D697436733139346961702F44650A
S1133B80736B746F702F7465616368696E672D63FE
S1133B907565642D346232352F4B53444B5F312E9F
S1133BA0312E302F706C6174666F726D2F68616C8A
S1133BB02F7372632F6770696F2F66736C5F677002
S1133BC0696F5F68616C2E63004750494F5F4841DD
S1133BD04C5F53657450696E446972004750494F95
S1133BE05F48414C5F577269746550696E4F7574D4
S1133BF0707574000090044000A0044000F00F4071
S1133C0040F00F401E1F00001400010016000200C7
S1133C10180003001A0004001C0005001E0009001F
S1133C202000060022000A002400070028000C00DF
S1133C302C001000300011003800120040000F006A
S1133C4044001300480014005000150058001900E7
S1133C506000160068001A007000170080001C0045
S1133C6090001D00A0001E00C0002200E0001F0004
S1133C70F00023000001240020012500400126005B
S1133C8080012A00C0012700E0012B0000022C0063
S1133C9040022D0080022E000003320080032F001A
S1133CA0C0033300000434008004350000053600EE
S1133CB000063A000007370080073B0000083C007C
S1133CC000093D00000A3E00000C3F00000F2F6871
S1133CD06F6D652F6D697436733139346961702F76
S1133CE04465736B746F702F7465616368696E6784
S1133CF02D637565642D346232352F4B53444B5F0D
S1133D00312E312E302F706C6174666F726D2F6896
S1133D10616C2F7372632F6932632F66736C5F69F2
S1133D2032635F68616C2E630042525F4932435FC5
S1133D3043315F4D53542862617365416464722951
S1133D40203D3D2031004932435F48414C5F53657B
S1133D506E6453746F70002C2066756E6374696FA3
S1133D606E3A2000617373657274696F6E20222548
S1133D707322206661696C65643A2066696C65200B
S1133D80222573222C206C696E65202564257325F9
S1133D90730A00430000000054FEFF1F232D302B44
S1133DA02000686C4C006566674546470030313238
S1133DB0333435363738394142434445460030318F
S1133DC032333435363738396162636465660000EE
S1133DD000000000000000000000000000000000DF
S1133DE000000000000000000000000000000000CF
S1133DF000000000000000000000000000000000BF
S1133E0000000000000000000000000000000000AE
S1133E10000000000000000000000000000000009E
S1133E20000000000000000000000000000000008E
S1133E30F8B5C046F8BC08BC9E467047F8B5C04605
S10B3E40F8BC08BC9E46704763
S10B3E4828C6FF7F0100000001
S1073E50390400002D
S1073E541104000051
S1133E580A01000001000000010000000B0100003D
S1133E6801000000010000000D0100000100000035
S1133E78010000000C000000010000000100000027
S1133E880200000001000000010000000D01000014
S1133E980100000001000000FFFFFFFF0000000018
S1133EA80000000000000000D03D0000F03D0000CC
S1133EB8103E0000000000000000000000000000A8
S1133EC800000000933D0000000000000000000016
S1133ED800000000000000000000000000000000D6
S1133EE800000000000000000000000000000000C6
S1133EF800000000000000000000000000000000B6
S10F3F080000000054FEFF1F0000000039
S90304E90F
